HPRIMEBCBSMN                   202603042026030420260304                                                                                                                                                                               
D267209279846        00001000054063079492               000054063079492                       6700812697  579354855PAYCODE34229001000019420000000327000000000PD                              j2405   AY 82403865965710769   207104    
D262210098575        00002000059732762189               000059732762189                       6700814995  146619722PAYCODE90610001000002073000000278000000000PD                              j2405   AY 82403865983034760   207104    
D254045036393        00003000059091070380               000059091070380                       6700815986  506148429PAYCODE16780001000046879000000324000000000PD                              j2405   AY 82403865969309003   207104    
D254280452488        00004000054509609986               000054509609986                       6700819479  707243179PAYCODE00108001000017991000000083000000000PD                              j2405   AY 82403865902852002   207104    
D258435831808        00005000057574869259               000057574869259                       6700815639  761271362PAYCODE83245001000015259000000305000000000PD                              j2405   AY 82403865989209016   207104    
D251164896929        00006000053117596000               000053117596000                       6700819347  491957516PAYCODE76849001000005730000000472000000000PD                              j2405   AY 82403865928063746   207104    
D260840486297        00007000054872455282               000054872455282                       6700810901  393155110PAYCODE42383001000035465000000064000000000PD                              j2405   AY 82403865985182683   207104    
D263142659496        00008000055694160573               000055694160573                       6700814408  518092555PAYCODE04465001000014757000000470000000000PD                              j2405   AY 82403865988175434   207104    
D262368487888        00009000051835267337               000051835267337                       6700815331  823172744PAYCODE01315001000011649000000379000000000PD                              j2405   AY 82403865993850508   207104    
D266209159632        00010000050083015921               000050083015921                       6700810161  635920062PAYCODE16600001000043995000000141000000000PD                              j2405   AY 82403865909006957   207104    
D256973782944        00011000057627808971               000057627808971                       6700818266  074639202PAYCODE46783001000035946000000465000000000PD                              j2405   AY 82403865984741054   207104    
D257569184196        00012000058994658399               000058994658399                       6700810244  489109113PAYCODE72871001000001758000000108000000000PD                              j2405   AY 82403865947116437   207104    
D252460749890        00013000057909052193               000057909052193                       6700818497  407290381PAYCODE02275001000020446000000036000000000PD                              j2405   AY 82403865984718626   207104    
D251310557133        00014000058607144685               000058607144685                       6700819120  660323808PAYCODE23525001000013541000000467000000000PD                              j2405   AY 82403865972534184   207104    
D260563614167        00015000052873355551               000052873355551                       6700811335  159132413PAYCODE27702001000035948000000127000000000PD                              j2405   AY 82403865925105079   207104    
D254231443397        00016000057767964943               000057767964943                       6700813695  368250455PAYCODE42171001000049917000000398000000000PD                              j2405   AY 82403865920504188   207104    
D263592762810        00017000058850704415               000058850704415                       6700812085  280448183PAYCODE16734001000022167000000048000000000PD                              j2405   AY 82403865938317310   207104    
D250174762596        00018000055284082483               000055284082483                       6700810726  441422683PAYCODE39865001000015442000000177000000000PD                              j2405   AY 82403865919412033   207104    
D268301706554        00019000058222922198               000058222922198                       6700812130  921843949PAYCODE63435001000022828000000086000000000PD                              j2405   AY 82403865910917570   207104    
D266570121452        00020000051010238310               000051010238310                       6700812519  568910726PAYCODE72697001000001444000000392000000000PD                              j2405   AY 82403865929681741   207104    
D266381843004        00021000058019128343               000058019128343                       6700815513  646581168PAYCODE16222001000010273000000027000000000PD                              j2405   AY 82403865993005868   207104    
D261453262586        00022000058870855819               000058870855819                       6700814079  136126235PAYCODE55110001000027190000000258000000000PD                              j2405   AY 82403865950598829   207104    
D268047300360        00023000052145093055               000052145093055                       6700811313  176275522PAYCODE63972001000024517000000252000000000PD                              j2405   AY 82403865973519530   207104    
D267236734831        00024000053260933847               000053260933847                       6700818644  045224719PAYCODE25939001000007870000000348000000000PD                              j2405   AY 82403865949643099   207104    
D262626199071        00025000059533170504               000059533170504                       6700814877  486025812PAYCODE48485001000006535000000153000000000PD                              j2405   AY 82403865978195501   207104    
D256694561825        00026000058676212872               000058676212872                       6700819811  557107158PAYCODE14307001000008342000000218000000000PD                              j2405   AY 82403865969780599   207104    
D266757662796        00027000051094382805               000051094382805                       6700818198  562920660PAYCODE32619001000000804000000091000000000PD                              j2405   AY 82403865906357333   207104    
D253269583392        00028000051025844203               000051025844203                       6700815851  477185843PAYCODE44032001000000941000000018000000000PD                              j2405   AY 82403865901052010   207104    
D253157430085        00029000052777307953               000052777307953                       6700812699  383116858PAYCODE14629001000036485000000017000000000PD                              j2405   AY 82403865995634141   207104    
D256454365183        00030000059985243136               000059985243136                       6700812803  292869447PAYCODE35763001000014257000000131000000000PD                              j2405   AY 82403865986708779   207104    
D266156214798        00031000057998742264               000057998742264                       6700816486  385870040PAYCODE24523001000045810000000252000000000PD                              j2405   AY 82403865911856714   207104    
D267980567778        00032000055308577075               000055308577075                       6700814720  943456172PAYCODE65664001000010840000000261000000000PD                              j2405   AY 82403865907602603   207104    
D258354184596        00033000053173584186               000053173584186                       6700817262  853280953PAYCODE80594001000023685000000389000000000PD                              j2405   AY 82403865909574826   207104    
D259966613933        00034000059671361650               000059671361650                       6700811320  535665259PAYCODE68998001000010227000000476000000000PD                              j2405   AY 82403865972009332   207104    
D269837938516        00035000059752814399               000059752814399                       6700816885  550275999PAYCODE47631001000023164000000338000000000PD                              j2405   AY 82403865927060836   207104    
D250813403815        00036000051166713665               000051166713665                       6700812878  373314404PAYCODE63232001000020288000000060000000000PD                              j2405   AY 82403865908482157   207104    
D267215936743        00037000056013152147               000056013152147                       6700816033  963503506PAYCODE12244001000040379000000423000000000PD                              j2405   AY 82403865930868641   207104    
D263097132807        00038000055280817839               000055280817839                       6700819321  142974525PAYCODE11976001000035592000000505000000000PD                              j2405   AY 82403865955446289   207104    
D262607366707        00039000051917764088               000051917764088                       6700819366  096032532PAYCODE72494001000014290000000081000000000PD                              j2405   AY 82403865980034315   207104    
D250615897020        00040000054412940275               000054412940275                       6700813967  851286654PAYCODE89473001000006236000000014000000000PD                              j2405   AY 82403865933015275   207104    
D268766968595        00041000054496236971               000054496236971                       6700816417  883627365PAYCODE99371001000023415000000402000000000PD                              j2405   AY 82403865986105143   207104    
D261164867406        00042000055884244913               000055884244913                       6700817835  287530538PAYCODE83159001000017971000000135000000000PD                              j2405   AY 82403865906123725   207104    
D264296393163        00043000054294768776               000054294768776                       6700815253  180002192PAYCODE88795001000037760000000442000000000PD                              j2405   AY 82403865980327378   207104    
D259194438798        00044000059017771386               000059017771386                       6700818331  796544657PAYCODE89423001000011147000000032000000000PD                              j2405   AY 82403865910841990   207104    
D264141024779        00045000052574385359               000052574385359                       6700816484  630474268PAYCODE93920001000048068000000248000000000PD                              j2405   AY 82403865910922782   207104    
D261024041323        00046000054135295590               000054135295590                       6700812633  391362717PAYCODE68248001000020295000000497000000000PD                              j2405   AY 82403865945255591   207104    
D257641100187        00047000052911868332               000052911868332                       6700811741  453417952PAYCODE14684001000032530000000343000000000PD                              j2405   AY 82403865983054705   207104    
D267977797280        00048000059010217885               000059010217885                       6700810323  264839610PAYCODE45738001000031336000000264000000000PD                              j2405   AY 82403865991252287   207104    
D269271759904        00049000056723922693               000056723922693                       6700813076  703392796PAYCODE27738001000002678000000485000000000PD                              j2405   AY 82403865903409385   207104    
D260817901804        00050000056697480831               000056697480831                       6700811280  869590688PAYCODE37442001000045882000000157000000000PD                              j2405   AY 82403865936896447   207104    
D250532984224        00051000058647805233               000058647805233                       6700813392  219154984PAYCODE08974001000031031000000445000000000PD                              j2405   AY 82403865961472199   207104    
D260414331533        00052000056250754904               000056250754904                       6700813437  158956564PAYCODE21250001000036781000000087000000000PD                              j2405   AY 82403865946535522   207104    
D252481853851        00053000058893906459               000058893906459                       6700814391  332758564PAYCODE10056001000021543000000235000000000PD                              j2405   AY 82403865961171556   207104    
D262385664534        00054000053634437988               000053634437988                       6700819301  062783658PAYCODE56545001000032316000000061000000000PD                              j2405   AY 82403865962914813   207104    
D258666538073        00055000059628519901               000059628519901                       6700815820  492857918PAYCODE45456001000010276000000291000000000PD                              j2405   AY 82403865954685151   207104    
D262142290302        00056000056935139535               000056935139535                       6700811688  786968000PAYCODE67035001000041894000000038000000000PD                              j2405   AY 82403865911335223   207104    
D252684493340        00057000052333437605               000052333437605                       6700813894  959139545PAYCODE86011001000000961000000258000000000PD                              j2405   AY 82403865920182696   207104    
D266160036187        00058000059527520695               000059527520695                       6700814923  526330593PAYCODE68173001000028384000000164000000000PD                              j2405   AY 82403865983656067   207104    
D266682429599        00059000056799365606               000056799365606                       6700813929  175712045PAYCODE54070001000016743000000190000000000PD                              j2405   AY 82403865906268809   207104    
D259600315891        00060000059111544516               000059111544516                       6700812508  393347018PAYCODE81486001000034400000000353000000000PD                              j2405   AY 82403865904243389   207104    
D265287167521        00061000059339098146               000059339098146                       6700815304  212428257PAYCODE79058001000004144000000458000000000PD                              j2405   AY 82403865978887648   207104    
D259093314728        00062000052983073910               000052983073910                       6700810570  867311014PAYCODE33121001000041026000000506000000000PD                              j2405   AY 82403865940777819   207104    
D264192231190        00063000051278708131               000051278708131                       6700812545  084482019PAYCODE10224001000040322000000139000000000PD                              j2405   AY 82403865937798834   207104    
D254640140645        00064000059609772795               000059609772795                       6700810138  596697142PAYCODE86384001000044611000000175000000000PD                              j2405   AY 82403865912523778   207104    
D257815562142        00065000056153171549               000056153171549                       6700819181  226806184PAYCODE05755001000015121000000196000000000PD                              j2405   AY 82403865925697022   207104    
D256227551574        00066000051200414570               000051200414570                       6700814196  891413162PAYCODE51135001000009740000000217000000000PD                              j2405   AY 82403865993011723   207104    
D264817659981        00067000055259974859               000055259974859                       6700814882  655630940PAYCODE66863001000019541000000342000000000PD                              j2405   AY 82403865919540708   207104    
D252222082256        00068000056820240319               000056820240319                       6700816710  329196137PAYCODE25052001000039933000000093000000000PD                              j2405   AY 82403865968060911   207104    
D265610474014        00069000058802583845               000058802583845                       6700810290  340884663PAYCODE69121001000021594000000150000000000PD                              j2405   AY 82403865919223414   207104    
D262999307411        00070000057211163647               000057211163647                       6700813131  864424136PAYCODE44893001000027483000000388000000000PD                              j2405   AY 82403865970488310   207104    
D253977974506        00071000055857691958               000055857691958                       6700812385  749344098PAYCODE72285001000000880000000069000000000PD                              j2405   AY 82403865916519912   207104    
D250512933227        00072000056107276859               000056107276859                       6700812986  266133705PAYCODE10178001000004880000000397000000000PD                              j2405   AY 82403865981797333   207104    
D267983494680        00073000056828053392               000056828053392                       6700812474  391261534PAYCODE10075001000042776000000234000000000PD                              j2405   AY 82403865917561226   207104    
D257582520408        00074000050356192955               000050356192955                       6700812164  605762549PAYCODE97772001000040363000000436000000000PD                              j2405   AY 82403865961493799   207104    
D259531864080        00075000059335767418               000059335767418                       6700814262  801775760PAYCODE37716001000031725000000476000000000PD                              j2405   AY 82403865956312714   207104    
D269333858539        00076000059004042672               000059004042672                       6700813441  556857892PAYCODE47801001000004366000000189000000000PD                              j2405   AY 82403865904625048   207104    
D267698207498        00077000055206183124               000055206183124                       6700818750  261514227PAYCODE86498001000031703000000023000000000PD                              j2405   AY 82403865945656477   207104    
D253555104923        00078000057908388736               000057908388736                       6700815358  491325646PAYCODE88323001000007055000000389000000000PD                              j2405   AY 82403865970645848   207104    
D266304097333        00079000057300555931               000057300555931                       6700819084  502119771PAYCODE28394001000031083000000462000000000PD                              j2405   AY 82403865990374389   207104    
D267723914947        00080000059791863112               000059791863112                       6700818989  705991234PAYCODE10082001000019109000000148000000000PD                              j2405   AY 82403865941816787   207104    
D261137459445        00081000055959871226               000055959871226                       6700818969  616066627PAYCODE80135001000024199000000194000000000PD                              j2405   AY 82403865952375691   207104    
D257462245374        00082000055388888791               000055388888791                       6700814040  033460096PAYCODE20928001000015135000000063000000000PD                              j2405   AY 82403865984453888   207104    
D253939231046        00083000058769573249               000058769573249                       6700816054  842756402PAYCODE71493001000005374000000101000000000PD                              j2405   AY 82403865909003410   207104    
D251614692983        00084000054543371523               000054543371523                       6700817285  318256969PAYCODE43955001000024872000000461000000000PD                              j2405   AY 82403865917222921   207104    
D269685552436        00085000056116956412               000056116956412                       6700818047  306129771PAYCODE67680001000025981000000085000000000PD                              j2405   AY 82403865992047131   207104    
D263785823676        00086000051534587848               000051534587848                       6700814182  842137480PAYCODE99101001000037631000000360000000000PD                              j2405   AY 82403865948300451   207104    
D252018033943        00087000050006071386               000050006071386                       6700811686  444012921PAYCODE34041001000025736000000350000000000PD                              j2405   AY 82403865915578393   207104    
D253334862032        00088000055351165269               000055351165269                       6700810332  037702980PAYCODE46554001000032815000000257000000000PD                              j2405   AY 82403865904861879   207104    
D258606100223        00089000058875690555               000058875690555                       6700811768  219408924PAYCODE05130001000018970000000031000000000PD                              j2405   AY 82403865991401239   207104    
D261788667152        00090000055331169016               000055331169016                       6700819585  370791324PAYCODE07247001000001167000000144000000000PD                              j2405   AY 82403865923520189   207104    
D251875141201        00091000058558222744               000058558222744                       6700816374  221060432PAYCODE39424001000028445000000188000000000PD                              j2405   AY 82403865902450860   207104    
D268117996521        00092000050990213283               000050990213283                       6700817087  246700424PAYCODE22623001000003942000000438000000000PD                              j2405   AY 82403865986958200   207104    
D251215423571        00093000057671937193               000057671937193                       6700818316  711294460PAYCODE88314001000001790000000297000000000PD                              j2405   AY 82403865990754228   207104    
D252808070389        00094000050689775129               000050689775129                       6700811376  472793642PAYCODE87760001000028940000000362000000000PD                              j2405   AY 82403865966435436   207104    
D254729386228        00095000054685109802               000054685109802                       6700819956  345402025PAYCODE66909001000024070000000047000000000PD                              j2405   AY 82403865957398041   207104    
D269130150108        00096000054577444783               000054577444783                       6700813168  202533874PAYCODE64902001000033755000000484000000000PD                              j2405   AY 82403865981551457   207104    
D254410060823        00097000051415989932               000051415989932                       6700815691  882855644PAYCODE67128001000025271000000038000000000PD                              j2405   AY 82403865970332333   207104    
D252093606485        00098000056996047732               000056996047732                       6700818098  348059684PAYCODE47808001000009238000000171000000000PD                              j2405   AY 82403865913043835   207104    
D267335523246        00099000050804871172               000050804871172                       6700816872  690663155PAYCODE13291001000002726000000213000000000PD                              j2405   AY 82403865928247625   207104    
D256389495499        00100000055465483428               000055465483428                       6700813915  367583696PAYCODE44556001000019705000000406000000000PD                              j2405   AY 82403865918363054   207104    
D250324876001        00101000055561729023               000055561729023                       6700815305  002575625PAYCODE33468001000021894000000419000000000PD                              j2405   AY 82403865995451335   207104    
D258091963597        00102000059278863309               000059278863309                       6700814966  594768163PAYCODE82720001000017135000000481000000000PD                              j2405   AY 82403865933565556   207104    
D250680010870        00103000051124945916               000051124945916                       6700819204  705780009PAYCODE07717001000006430000000168000000000PD                              j2405   AY 82403865971430419   207104    
D265713555407        00104000057694887894               000057694887894                       6700811071  030278005PAYCODE04262001000005492000000311000000000PD                              j2405   AY 82403865919691678   207104    
D259541298407        00105000057676676148               000057676676148                       6700816122  266502061PAYCODE48388001000043826000000465000000000PD                              j2405   AY 82403865961337912   207104    
D269211081455        00106000058171426917               000058171426917                       6700814130  141452016PAYCODE67007001000027198000000012000000000PD                              j2405   AY 82403865968817481   207104    
D259488414710        00107000051403548281               000051403548281                       6700819830  741275676PAYCODE88470001000012602000000190000000000PD                              j2405   AY 82403865978490681   207104    
D256373670244        00108000052468193830               000052468193830                       6700811723  735978462PAYCODE58698001000036343000000369000000000PD                              j2405   AY 82403865943033611   207104    
D258763486519        00109000059490101407               000059490101407                       6700817316  121637124PAYCODE23702001000014934000000222000000000PD                              j2405   AY 82403865994612025   207104    
D269831032896        00110000050370570225               000050370570225                       6700811474  571266348PAYCODE09026001000019086000000115000000000PD                              j2405   AY 82403865951369844   207104    
D261667177395        00111000053025694289               000053025694289                       6700814221  992394194PAYCODE98917001000024908000000385000000000PD                              j2405   AY 82403865927733737   207104    
D266489923596        00112000052054929656               000052054929656                       6700818513  669170382PAYCODE88276001000024346000000189000000000PD                              j2405   AY 82403865906042350   207104    
D263142559779        00113000052173640788               000052173640788                       6700817177  281332943PAYCODE94254001000044330000000047000000000PD                              j2405   AY 82403865941955913   207104    
D268057137592        00114000055475452711               000055475452711                       6700813560  146793644PAYCODE17147001000042176000000269000000000PD                              j2405   AY 82403865907700666   207104    
D252921592492        00115000053682705840               000053682705840                       6700817374  333255405PAYCODE89882001000045564000000393000000000PD                              j2405   AY 82403865946385590   207104    
D268497910430        00116000053754246273               000053754246273                       6700816292  413412104PAYCODE16797001000039789000000263000000000PD                              j2405   AY 82403865966094203   207104    
D253402706942        00117000053087843805               000053087843805                       6700817407  223775831PAYCODE98854001000030033000000043000000000PD                              j2405   AY 82403865914862592   207104    
D251981346111        00118000055325943193               000055325943193                       6700813632  902610816PAYCODE24336001000003230000000381000000000PD                              j2405   AY 82403865927379225   207104    
D255517919400        00119000052918353422               000052918353422                       6700816116  172230374PAYCODE07171001000006693000000324000000000PD                              j2405   AY 82403865925806942   207104    
D256498816027        00120000053514523334               000053514523334                       6700810826  422935463PAYCODE21777001000047224000000187000000000PD                              j2405   AY 82403865976105093   207104    
D264107025578        00121000054485854558               000054485854558                       6700812289  462161697PAYCODE01055001000020387000000130000000000PD                              j2405   AY 82403865926030065   207104    
D250260768953        00122000050483266204               000050483266204                       6700810858  938857449PAYCODE79802001000008516000000401000000000PD                              j2405   AY 82403865923634563   207104    
D265643411349        00123000052473026611               000052473026611                       6700819798  717424159PAYCODE63971001000014832000000186000000000PD                              j2405   AY 82403865969104000   207104    
D265531831864        00124000053169976355               000053169976355                       6700811998  942011482PAYCODE72476001000047707000000477000000000PD                              j2405   AY 82403865983538665   207104    
D257407499225        00125000056256839577               000056256839577                       6700813381  965014249PAYCODE64006001000018858000000195000000000PD                              j2405   AY 82403865966687030   207104    
D252641247189        00126000058848649494               000058848649494                       6700814556  848339412PAYCODE09333001000049771000000458000000000PD                              j2405   AY 82403865961676126   207104    
D266679993907        00127000050803257450               000050803257450                       6700815429  137324372PAYCODE33464001000047649000000328000000000PD                              j2405   AY 82403865959707185   207104    
D257444822657        00128000056306047266               000056306047266                       6700813152  942997484PAYCODE86453001000035580000000410000000000PD                              j2405   AY 82403865980367313   207104    
D267146022914        00129000052711869992               000052711869992                       6700817853  533707498PAYCODE61950001000018624000000287000000000PD                              j2405   AY 82403865923489934   207104    
D257237631470        00130000057577488203               000057577488203                       6700812234  596144548PAYCODE78974001000042851000000166000000000PD                              j2405   AY 82403865911960623   207104    
D256782451941        00131000053065169180               000053065169180                       6700819214  439094522PAYCODE12061001000013225000000235000000000PD                              j2405   AY 82403865905577376   207104    
D257596963243        00132000056017406085               000056017406085                       6700810621  683490979PAYCODE90177001000029151000000248000000000PD                              j2405   AY 82403865926555002   207104    
D266769465063        00133000051900105950               000051900105950                       6700817227  910571888PAYCODE72588001000015408000000106000000000PD                              j2405   AY 82403865967099242   207104    
D257686798703        00134000053905686011               000053905686011                       6700810459  766826404PAYCODE36712001000043270000000449000000000PD                              j2405   AY 82403865930117661   207104    
D267446527343        00135000059683104305               000059683104305                       6700810106  807585025PAYCODE32660001000016166000000441000000000PD                              j2405   AY 82403865957020328   207104    
D255149921853        00136000052965426216               000052965426216                       6700812238  756597262PAYCODE90420001000000718000000489000000000PD                              j2405   AY 82403865984474887   207104    
D253850020829        00137000054878486649               000054878486649                       6700812419  194959705PAYCODE14715001000046411000000066000000000PD                              j2405   AY 82403865988999881   207104    
D250774860447        00138000053282155085               000053282155085                       6700819162  067421730PAYCODE50274001000038801000000456000000000PD                              j2405   AY 82403865991825079   207104    
D267575574505        00139000055103611894               000055103611894                       6700814988  939885741PAYCODE28654001000028003000000404000000000PD                              j2405   AY 82403865964032866   207104    
D257462829496        00140000058556295475               000058556295475                       6700819561  568514291PAYCODE43108001000006422000000234000000000PD                              j2405   AY 82403865973383327   207104    
D265213561475        00141000055686839219               000055686839219                       6700819748  824433017PAYCODE40092001000020782000000105000000000PD                              j2405   AY 82403865990065289   207104    
D250880629640        00142000054984840476               000054984840476                       6700819700  956444209PAYCODE24349001000017977000000415000000000PD                              j2405   AY 82403865978136947   207104    
D266985316457        00143000058122312347               000058122312347                       6700812989  095201743PAYCODE83357001000031626000000270000000000PD                              j2405   AY 82403865922291590   207104    
D252183128683        00144000056927143052               000056927143052                       6700812347  956522534PAYCODE67591001000007880000000210000000000PD                              j2405   AY 82403865914656673   207104    
D261848666575        00145000059854095028               000059854095028                       6700814826  204558881PAYCODE84415001000048642000000205000000000PD                              j2405   AY 82403865983424291   207104    
D258857597283        00146000053599677306               000053599677306                       6700814663  938273576PAYCODE86188001000016126000000015000000000PD                              j2405   AY 82403865989319530   207104    
D269692902004        00147000054037939668               000054037939668                       6700816875  629411730PAYCODE70512001000035414000000441000000000PD                              j2405   AY 82403865981426729   207104    
D264057896905        00148000058558501966               000058558501966                       6700817549  684458340PAYCODE17200001000033950000000212000000000PD                              j2405   AY 82403865942553164   207104    
D252499000705        00149000053625802971               000053625802971                       6700810098  183160838PAYCODE07430001000050123000000046000000000PD                              j2405   AY 82403865959521750   207104    
D263824208053        00150000058368093931               000058368093931                       6700810890  434027335PAYCODE07078001000005018000000449000000000PD                              j2405   AY 82403865980614310   207104    
D253717197727        00151000050681461329               000050681461329                       6700811598  314452553PAYCODE92336001000049001000000150000000000PD                              j2405   AY 82403865932852129   207104    
D255188182168        00152000055889970381               000055889970381                       6700817640  172011618PAYCODE77805001000027194000000275000000000PD                              j2405   AY 82403865980344679   207104    
D269010879464        00153000050823528567               000050823528567                       6700811400  142464396PAYCODE30710001000025887000000336000000000PD                              j2405   AY 82403865992681585   207104    
D268810965566        00154000051408348427               000051408348427                       6700810502  156990378PAYCODE20490001000005537000000057000000000PD                              j2405   AY 82403865997257900   207104    
D251020472461        00155000053639689909               000053639689909                       6700818942  958707734PAYCODE92479001000007401000000273000000000PD                              j2405   AY 82403865907806795   207104    
D264364774878        00156000050325837391               000050325837391                       6700814475  555222360PAYCODE09279001000042029000000085000000000PD                              j2405   AY 82403865927798152   207104    
D267099886684        00157000057840274836               000057840274836                       6700811448  593333629PAYCODE11065001000003916000000366000000000PD                              j2405   AY 82403865928123246   207104    
D266580506006        00158000053971728299               000053971728299                       6700812548  577673290PAYCODE40548001000045307000000217000000000PD                              j2405   AY 82403865903410538   207104    
D264858964825        00159000059357550336               000059357550336                       6700817801  150854967PAYCODE75361001000003199000000341000000000PD                              j2405   AY 82403865939875840   207104    
D269510073706        00160000056492931887               000056492931887                       6700812360  050503429PAYCODE83604001000031702000000221000000000PD                              j2405   AY 82403865950144555   207104    
D267977860914        00161000054333834623               000054333834623                       6700818323  197597002PAYCODE52681001000048344000000374000000000PD                              j2405   AY 82403865934441707   207104    
D256814206774        00162000058895876660               000058895876660                       6700818376  325357123PAYCODE11160001000010060000000328000000000PD                              j2405   AY 82403865955559134   207104    
D269049768653        00163000050111721441               000050111721441                       6700815433  785260369PAYCODE79568001000048356000000017000000000PD                              j2405   AY 82403865958392862   207104    
D250559007885        00164000051820366265               000051820366265                       6700813789  734154541PAYCODE65189001000024582000000012000000000PD                              j2405   AY 82403865953491782   207104    
D258426831193        00165000056903236373               000056903236373                       6700812302  588200810PAYCODE84786001000035824000000201000000000PD                              j2405   AY 82403865994530789   207104    
D266370248592        00166000053260008348               000053260008348                       6700818353  813125408PAYCODE07051001000010297000000072000000000PD                              j2405   AY 82403865906991481   207104    
D266426709112        00167000052224988444               000052224988444                       6700812476  073355430PAYCODE09903001000028370000000228000000000PD                              j2405   AY 82403865919112057   207104    
D269459318061        00168000057087403551               000057087403551                       6700811738  212257176PAYCODE20876001000020706000000496000000000PD                              j2405   AY 82403865975350367   207104    
D268267385509        00169000056511633492               000056511633492                       6700818050  985188817PAYCODE28600001000006643000000158000000000PD                              j2405   AY 82403865902518996   207104    
D260188971671        00170000054172694113               000054172694113                       6700818208  134303171PAYCODE76023001000005080000000259000000000PD                              j2405   AY 82403865929325432   207104    
D251430096960        00171000057631650801               000057631650801                       6700811721  697493962PAYCODE63722001000031791000000299000000000PD                              j2405   AY 82403865987394168   207104    
D259535360525        00172000051126266581               000051126266581                       6700814400  105159801PAYCODE51940001000032705000000136000000000PD                              j2405   AY 82403865914304122   207104    
D260381357284        00173000057419357637               000057419357637                       6700817240  184661665PAYCODE48987001000030073000000241000000000PD                              j2405   AY 82403865919155498   207104    
D252022988386        00174000055277703180               000055277703180                       6700815847  188084499PAYCODE73788001000043286000000420000000000PD                              j2405   AY 82403865963710589   207104    
D254457879657        00175000059046797807               000059046797807                       6700810780  694078733PAYCODE59045001000001281000000470000000000PD                              j2405   AY 82403865903886557   207104    
D265656226475        00176000053937928106               000053937928106                       6700810786  527841072PAYCODE81379001000036800000000037000000000PD                              j2405   AY 82403865937188229   207104    
D256260078622        00177000050299567185               000050299567185                       6700817976  696752314PAYCODE08982001000021767000000147000000000PD                              j2405   AY 82403865946340767   207104    
D269219547075        00178000051121621403               000051121621403                       6700818858  082974828PAYCODE01991001000046749000000117000000000PD                              j2405   AY 82403865920437961   207104    
D259796787682        00179000052435643939               000052435643939                       6700812792  423696807PAYCODE61585001000011776000000266000000000PD                              j2405   AY 82403865910463000   207104    
D264585667249        00180000059604547391               000059604547391                       6700818078  299033097PAYCODE04344001000028211000000356000000000PD                              j2405   AY 82403865911334815   207104    
D267309506178        00181000056875586476               000056875586476                       6700816694  402400209PAYCODE24722001000016574000000425000000000PD                              j2405   AY 82403865951517819   207104    
D262221457363        00182000056747086426               000056747086426                       6700811060  993108563PAYCODE34286001000031696000000408000000000PD                              j2405   AY 82403865989110925   207104    
D259184094667        00183000057191038493               000057191038493                       6700811857  117399615PAYCODE53007001000045454000000489000000000PD                              j2405   AY 82403865988428948   207104    
D259014457842        00184000052145370423               000052145370423                       6700814899  755886374PAYCODE56179001000011509000000229000000000PD                              j2405   AY 82403865903503158   207104    
D256465970478        00185000051771963120               000051771963120                       6700816367  045456488PAYCODE11031001000010361000000432000000000PD                              j2405   AY 82403865964828123   207104    
D265724563649        00186000057297321255               000057297321255                       6700812856  722192426PAYCODE74763001000040818000000409000000000PD                              j2405   AY 82403865961144099   207104    
D251241544286        00187000051690203021               000051690203021                       6700812093  863859434PAYCODE70546001000001711000000204000000000PD                              j2405   AY 82403865990662017   207104    
D252990084282        00188000052123971440               000052123971440                       6700819094  576975687PAYCODE27791001000040677000000070000000000PD                              j2405   AY 82403865971844947   207104    
D250476933964        00189000058016523963               000058016523963                       6700810038  869262736PAYCODE90784001000029393000000422000000000PD                              j2405   AY 82403865902025243   207104    
D252747738455        00190000056754288665               000056754288665                       6700812270  401664119PAYCODE55651001000046001000000479000000000PD                              j2405   AY 82403865950442928   207104    
D266319936564        00191000050117217947               000050117217947                       6700819824  974505543PAYCODE07792001000008088000000247000000000PD                              j2405   AY 82403865904628189   207104    
D259382097070        00192000053357933808               000053357933808                       6700813129  269706020PAYCODE65141001000047466000000464000000000PD                              j2405   AY 82403865931914715   207104    
D255044695396        00193000051878617264               000051878617264                       6700814025  926025039PAYCODE42040001000006848000000323000000000PD                              j2405   AY 82403865982332362   207104    
D267221694035        00194000053624999474               000053624999474                       6700814243  941132756PAYCODE29492001000022233000000143000000000PD                              j2405   AY 82403865958306967   207104    
D256654589806        00195000052404704499               000052404704499                       6700819894  846411198PAYCODE76585001000023835000000501000000000PD                              j2405   AY 82403865996262639   207104    
D257176080593        00196000052268142873               000052268142873                       6700819736  170174780PAYCODE72985001000041927000000026000000000PD                              j2405   AY 82403865909251127   207104    
D268380806037        00197000058543186380               000058543186380                       6700811172  255563146PAYCODE41719001000007007000000074000000000PD                              j2405   AY 82403865904535567   207104    
D250869865104        00198000052415406754               000052415406754                       6700818561  603642704PAYCODE01744001000002479000000420000000000PD                              j2405   AY 82403865902201453   207104    
D251165008631        00199000052398683866               000052398683866                       6700818925  903701871PAYCODE33530001000021097000000304000000000PD                              j2405   AY 82403865904059914   207104    
D258316346506        00200000052304181314               000052304181314                       6700812914  814167947PAYCODE62212001000049771000000237000000000PD                              j2405   AY 82403865903180867   207104    
D257934525255        00201000054626318009               000054626318009                       6700812194  026803883PAYCODE22500001000045665000000125000000000PD                              j2405   AY 82403865912140218   207104    
D260541638307        00202000054764358447               000054764358447                       6700812281  221897069PAYCODE55924001000039288000000378000000000PD                              j2405   AY 82403865904903996   207104    
D251256899622        00203000053991035523               000053991035523                       6700817863  584376014PAYCODE56998001000020829000000141000000000PD                              j2405   AY 82403865913909065   207104    
D269305134729        00204000055236212045               000055236212045                       6700814404  860876255PAYCODE85787001000030113000000455000000000PD                              j2405   AY 82403865925512868   207104    
D260521324119        00205000054545711652               000054545711652                       6700812824  197480329PAYCODE90070001000026836000000036000000000PD                              j2405   AY 82403865933855943   207104    
D266058086804        00206000054638468908               000054638468908                       6700819076  223466429PAYCODE85649001000018410000000450000000000PD                              j2405   AY 82403865965020064   207104    
D265235526627        00207000056117757056               000056117757056                       6700818142  689817966PAYCODE49554001000015512000000248000000000PD                              j2405   AY 82403865925502043   207104    
D251372391124        00208000051426246884               000051426246884                       6700813679  164806224PAYCODE65170001000029268000000493000000000PD                              j2405   AY 82403865916485864   207104    
D256629768414        00209000057143939644               000057143939644                       6700811363  369905681PAYCODE26192001000042948000000359000000000PD                              j2405   AY 82403865965989440   207104    
D261084707424        00210000057275069168               000057275069168                       6700814088  118750013PAYCODE03376001000033218000000034000000000PD                              j2405   AY 82403865965913805   207104    
D253888803360        00211000051751190008               000051751190008                       6700817689  471354827PAYCODE06301001000037159000000064000000000PD                              j2405   AY 82403865963868701   207104    
D263720259256        00212000056231161826               000056231161826                       6700819356  551738233PAYCODE62241001000049783000000180000000000PD                              j2405   AY 82403865939582815   207104    
D263668389035        00213000056965236969               000056965236969                       6700819509  428608617PAYCODE54907001000040252000000131000000000PD                              j2405   AY 82403865935551176   207104    
D264746829105        00214000057473023650               000057473023650                       6700818336  796186289PAYCODE62633001000049116000000213000000000PD                              j2405   AY 82403865933820464   207104    
D265424745385        00215000055273780680               000055273780680                       6700817625  906702389PAYCODE39049001000014751000000279000000000PD                              j2405   AY 82403865969493352   207104    
D267432791256        00216000057682564553               000057682564553                       6700810075  450251798PAYCODE40645001000040704000000261000000000PD                              j2405   AY 82403865989185801   207104    
D267466331844        00217000056169084205               000056169084205                       6700818721  349765796PAYCODE35114001000045761000000298000000000PD                              j2405   AY 82403865922107475   207104    
D254850097685        00218000050897079028               000050897079028                       6700812979  103763209PAYCODE74258001000003301000000108000000000PD                              j2405   AY 82403865911222931   207104    
D255491776578        00219000051113764426               000051113764426                       6700818572  230837640PAYCODE11438001000008804000000165000000000PD                              j2405   AY 82403865918872998   207104    
D263450408071        00220000058568653945               000058568653945                       6700819169  053299185PAYCODE67020001000012815000000085000000000PD                              j2405   AY 82403865900915969   207104    
D260617393691        00221000059885220265               000059885220265                       6700818090  571650832PAYCODE12538001000026731000000354000000000PD                              j2405   AY 82403865969257320   207104    
D251593661581        00222000054137692372               000054137692372                       6700815102  096536397PAYCODE74908001000039681000000313000000000PD                              j2405   AY 82403865938709464   207104    
D255782903304        00223000055014918888               000055014918888                       6700812065  489353042PAYCODE73797001000026973000000182000000000PD                              j2405   AY 82403865968844109   207104    
D259236562961        00224000055499887892               000055499887892                       6700816183  524978105PAYCODE87553001000007015000000213000000000PD                              j2405   AY 82403865944666234   207104    
D261770210668        00225000053562079282               000053562079282                       6700818046  289539207PAYCODE15647001000036773000000274000000000PD                              j2405   AY 82403865937771550   207104    
D255959550568        00226000051072689666               000051072689666                       6700815224  715611965PAYCODE04111001000039846000000372000000000PD                              j2405   AY 82403865972695164   207104    
D263061147617        00227000053756128400               000053756128400                       6700817924  402048064PAYCODE25911001000050247000000132000000000PD                              j2405   AY 82403865924245661   207104    
D258606562473        00228000059729430893               000059729430893                       6700811215  271518307PAYCODE43798001000047094000000186000000000PD                              j2405   AY 82403865915077883   207104    
D259727004293        00229000059096407433               000059096407433                       6700817866  429300252PAYCODE76689001000042747000000258000000000PD                              j2405   AY 82403865958575328   207104    
D259850932354        00230000059643808950               000059643808950                       6700812783  721758734PAYCODE05770001000013526000000016000000000PD                              j2405   AY 82403865999781045   207104    
D264206759793        00231000059908302886               000059908302886                       6700818173  323224603PAYCODE22874001000011877000000465000000000PD                              j2405   AY 82403865903890880   207104    
D266388282144        00232000054437005539               000054437005539                       6700817337  660981219PAYCODE93337001000036454000000413000000000PD                              j2405   AY 82403865940532618   207104    
D261225041809        00233000057635042824               000057635042824                       6700816816  787631406PAYCODE48271001000039512000000274000000000PD                              j2405   AY 82403865972576630   207104    
D262426790913        00234000058824213933               000058824213933                       6700818695  290824734PAYCODE91275001000029298000000279000000000PD                              j2405   AY 82403865960532481   207104    
D263076556532        00235000050014670901               000050014670901                       6700814070  103232299PAYCODE01915001000047262000000093000000000PD                              j2405   AY 82403865978641188   207104    
D269762860668        00236000052557618191               000052557618191                       6700818411  247522790PAYCODE60674001000020955000000179000000000PD                              j2405   AY 82403865921994067   207104    
D257954538031        00237000059015166761               000059015166761                       6700814676  604241718PAYCODE15383001000048882000000392000000000PD                              j2405   AY 82403865923377561   207104    
D266854446441        00238000059374678845               000059374678845                       6700815017  168267893PAYCODE46909001000015687000000151000000000PD                              j2405   AY 82403865989979036   207104    
D264194372996        00239000052316933995               000052316933995                       6700815572  991101765PAYCODE31155001000000739000000198000000000PD                              j2405   AY 82403865955214131   207104    
D257056793236        00240000052322246290               000052322246290                       6700816437  570814503PAYCODE08870001000010645000000216000000000PD                              j2405   AY 82403865957136533   207104    
D263348089782        00241000056990471105               000056990471105                       6700818480  507856888PAYCODE67430001000009012000000317000000000PD                              j2405   AY 82403865915166944   207104    
D261551151225        00242000053404366434               000053404366434                       6700810211  355614470PAYCODE88473001000041424000000502000000000PD                              j2405   AY 82403865995591153   207104    
D268198227362        00243000059962093284               000059962093284                       6700810735  518520169PAYCODE46643001000020700000000074000000000PD                              j2405   AY 82403865977035409   207104    
D262123242030        00244000055718184185               000055718184185                       6700813143  138141792PAYCODE19753001000018119000000081000000000PD                              j2405   AY 82403865947783081   207104    
D257302615530        00245000052036991879               000052036991879                       6700814645  712083273PAYCODE20666001000011029000000307000000000PD                              j2405   AY 82403865942085417   207104    
D256427831472        00246000057940941277               000057940941277                       6700813263  677188770PAYCODE07808001000045233000000115000000000PD                              j2405   AY 82403865953119799   207104    
D250815602582        00247000051028847203               000051028847203                       6700816812  040622527PAYCODE30649001000021657000000062000000000PD                              j2405   AY 82403865906900599   207104    
D254625099439        00248000057781692756               000057781692756                       6700818838  723339750PAYCODE39408001000038107000000419000000000PD                              j2405   AY 82403865995803856   207104    
D267205508806        00249000059725187942               000059725187942                       6700811990  269103159PAYCODE89934001000032482000000150000000000PD                              j2405   AY 82403865904181666   207104    
D259970097654        00250000051496157614               000051496157614                       6700819608  989201045PAYCODE95431001000019440000000086000000000PD                              j2405   AY 82403865996313247   207104    
D253069189131        00251000059339295210               000059339295210                       6700818368  593131773PAYCODE25884001000040038000000305000000000PD                              j2405   AY 82403865956608046   207104    
D252028420233        00252000059290910183               000059290910183                       6700817118  621036330PAYCODE73422001000004768000000418000000000PD                              j2405   AY 82403865994062335   207104    
D262732405607        00253000050102375414               000050102375414                       6700819128  561410028PAYCODE01402001000005416000000357000000000PD                              j2405   AY 82403865921264620   207104    
D263861135771        00254000054837950194               000054837950194                       6700819851  115657967PAYCODE22965001000045070000000451000000000PD                              j2405   AY 82403865945637289   207104    
D259092044709        00255000050150671147               000050150671147                       6700816894  810607581PAYCODE81806001000041829000000142000000000PD                              j2405   AY 82403865972304106   207104    
D260371660496        00256000053471603827               000053471603827                       6700814688  158027056PAYCODE53161001000005757000000086000000000PD                              j2405   AY 82403865926165061   207104    
D252278135803        00257000058918083579               000058918083579                       6700816090  611517415PAYCODE69616001000035128000000130000000000PD                              j2405   AY 82403865912457575   207104    
D256903123463        00258000058694736569               000058694736569                       6700813191  976332853PAYCODE31984001000017284000000018000000000PD                              j2405   AY 82403865998385855   207104    
D258176788154        00259000052364649532               000052364649532                       6700813596  201015715PAYCODE24866001000008800000000121000000000PD                              j2405   AY 82403865945103591   207104    
D260121096239        00260000054594949380               000054594949380                       6700814059  428399981PAYCODE17034001000003627000000142000000000PD                              j2405   AY 82403865908982355   207104    
D269296273492        00261000057575509269               000057575509269                       6700814782  303137732PAYCODE31358001000007774000000253000000000PD                              j2405   AY 82403865958092092   207104    
D265420327456        00262000055279195951               000055279195951                       6700811548  346163701PAYCODE42497001000018685000000331000000000PD                              j2405   AY 82403865956876735   207104    
D265843202997        00263000058288606204               000058288606204                       6700810153  690890132PAYCODE04380001000006207000000350000000000PD                              j2405   AY 82403865920252939   207104    
D255086401674        00264000058070580941               000058070580941                       6700816688  539020737PAYCODE28789001000024652000000297000000000PD                              j2405   AY 82403865997606896   207104    
D268373812872        00265000054131174115               000054131174115                       6700814101  519964638PAYCODE60023001000007568000000440000000000PD                              j2405   AY 82403865905903891   207104    
D255579464151        00266000056990398165               000056990398165                       6700815544  137917306PAYCODE04457001000011622000000473000000000PD                              j2405   AY 82403865954463401   207104    
D258691943754        00267000052352582309               000052352582309                       6700813125  888186223PAYCODE77307001000011866000000464000000000PD                              j2405   AY 82403865968082697   207104    
D251664363405        00268000057041846633               000057041846633                       6700814614  963967287PAYCODE53996001000007429000000011000000000PD                              j2405   AY 82403865913598740   207104    
D268002732359        00269000057521101342               000057521101342                       6700819618  095144296PAYCODE25662001000039913000000252000000000PD                              j2405   AY 82403865981139141   207104    
D250462542421        00270000052436505735               000052436505735                       6700817480  947759574PAYCODE79992001000038535000000209000000000PD                              j2405   AY 82403865913612195   207104    
D269695886610        00271000055753604504               000055753604504                       6700812929  582734475PAYCODE87466001000017680000000118000000000PD                              j2405   AY 82403865989167108   207104    
D258385511923        00272000053443956504               000053443956504                       6700818685  192171169PAYCODE78409001000022733000000090000000000PD                              j2405   AY 82403865954189744   207104    
D269830103208        00273000056406450476               000056406450476                       6700810977  868432809PAYCODE19258001000035462000000051000000000PD                              j2405   AY 82403865980108728   207104    
D259141749252        00274000052967090683               000052967090683                       6700810637  583350785PAYCODE31842001000006923000000363000000000PD                              j2405   AY 82403865942375266   207104    
D261941750267        00275000050038179179               000050038179179                       6700810495  691821486PAYCODE87264001000010778000000257000000000PD                              j2405   AY 82403865914540285   207104    
D255708165143        00276000056705557086               000056705557086                       6700817176  233575381PAYCODE97538001000030440000000220000000000PD                              j2405   AY 82403865972828681   207104    
D269767660400        00277000057736537374               000057736537374                       6700814080  978498380PAYCODE85992001000007404000000159000000000PD                              j2405   AY 82403865952243300   207104    
D269738527553        00278000051262240026               000051262240026                       6700815611  393375208PAYCODE51967001000029564000000228000000000PD                              j2405   AY 82403865933597538   207104    
D262830609489        00279000050968166117               000050968166117                       6700810584  314761718PAYCODE09429001000018695000000072000000000PD                              j2405   AY 82403865935157086   207104    
D253946881184        00280000058370637186               000058370637186                       6700811588  263581149PAYCODE22249001000006732000000169000000000PD                              j2405   AY 82403865941865058   207104    
D253389983143        00281000058111350189               000058111350189                       6700811194  619855337PAYCODE08917001000009996000000430000000000PD                              j2405   AY 82403865928224133   207104    
D262174712615        00282000052931431789               000052931431789                       6700817650  934560351PAYCODE58593001000024189000000386000000000PD                              j2405   AY 82403865943329599   207104    
D258347263749        00283000052450585107               000052450585107                       6700812322  678601956PAYCODE23366001000036829000000360000000000PD                              j2405   AY 82403865927344528   207104    
D256606200590        00284000056868623078               000056868623078                       6700814406  640647752PAYCODE50861001000016985000000383000000000PD                              j2405   AY 82403865959557914   207104    
D261809134211        00285000053824933214               000053824933214                       6700810578  607583514PAYCODE99521001000036999000000106000000000PD                              j2405   AY 82403865910338621   207104    
D251652549462        00286000050020781640               000050020781640                       6700817565  383435027PAYCODE81848001000027415000000102000000000PD                              j2405   AY 82403865908753577   207104    
D260124244967        00287000050212520838               000050212520838                       6700816120  423820065PAYCODE70010001000040756000000294000000000PD                              j2405   AY 82403865951812104   207104    
D252743244190        00288000050723260474               000050723260474                       6700812059  323650382PAYCODE47646001000044801000000464000000000PD                              j2405   AY 82403865936381594   207104    
D257435523892        00289000057992813417               000057992813417                       6700815864  015660380PAYCODE29176001000003950000000429000000000PD                              j2405   AY 82403865988549692   207104    
D264160426740        00290000057501069041               000057501069041                       6700815491  595748526PAYCODE74535001000033625000000487000000000PD                              j2405   AY 82403865992703678   207104    
D266528134705        00291000059318009971               000059318009971                       6700812601  904809891PAYCODE47235001000001767000000091000000000PD                              j2405   AY 82403865939546780   207104    
D256713011494        00292000050887900178               000050887900178                       6700810120  151001303PAYCODE93357001000022882000000361000000000PD                              j2405   AY 82403865994412227   207104    
D260853532363        00293000058835181015               000058835181015                       6700817599  666532243PAYCODE28826001000003333000000069000000000PD                              j2405   AY 82403865976419547   207104    
D261617162791        00294000056765360588               000056765360588                       6700817199  120346067PAYCODE91467001000009385000000273000000000PD                              j2405   AY 82403865981795356   207104    
D253413861412        00295000050102770179               000050102770179                       6700812254  597272828PAYCODE56051001000012156000000422000000000PD                              j2405   AY 82403865922867191   207104    
D264470556705        00296000056583498848               000056583498848                       6700819183  840535698PAYCODE40543001000005739000000220000000000PD                              j2405   AY 82403865995937307   207104    
D261674137104        00297000058621753323               000058621753323                       6700811072  202656628PAYCODE34648001000019249000000412000000000PD                              j2405   AY 82403865964170973   207104    
D256798459093        00298000053389658478               000053389658478                       6700817913  420668962PAYCODE16996001000038775000000137000000000PD                              j2405   AY 82403865987104048   207104    
D263364542549        00299000050066541463               000050066541463                       6700812535  036214199PAYCODE46477001000015090000000316000000000PD                              j2405   AY 82403865962810015   207104    
D262146950342        00300000051584090882               000051584090882                       6700815700  156920224PAYCODE56129001000042745000000308000000000PD                              j2405   AY 82403865972196155   207104    
D269676571785        00301000054385726554               000054385726554                       6700815995  225335316PAYCODE86245001000046078000000127000000000PD                              j2405   AY 82403865917171090   207104    
D250247952708        00302000052546038298               000052546038298                       6700819352  093802164PAYCODE40480001000031202000000106000000000PD                              j2405   AY 82403865906267275   207104    
D254455816748        00303000053199593585               000053199593585                       6700811415  922815456PAYCODE81428001000030802000000193000000000PD                              j2405   AY 82403865963479499   207104    
D265685241241        00304000054020967344               000054020967344                       6700819910  454924362PAYCODE92577001000002636000000258000000000PD                              j2405   AY 82403865977193209   207104    
D258343279807        00305000058632342527               000058632342527                       6700811528  247878994PAYCODE84560001000018760000000294000000000PD                              j2405   AY 82403865935928099   207104    
D266839501037        00306000056115650271               000056115650271                       6700818194  642606675PAYCODE80658001000025995000000376000000000PD                              j2405   AY 82403865987851907   207104    
D252394979165        00307000056951525017               000056951525017                       6700810507  736239866PAYCODE74808001000011973000000095000000000PD                              j2405   AY 82403865960671753   207104    
D254312507749        00308000056421209845               000056421209845                       6700815504  183165984PAYCODE19699001000042606000000181000000000PD                              j2405   AY 82403865949873447   207104    
D251955929664        00309000059822232881               000059822232881                       6700813434  650022656PAYCODE97827001000027563000000042000000000PD                              j2405   AY 82403865947495651   207104    
D268722860007        00310000059038798440               000059038798440                       6700818561  059459409PAYCODE09723001000045471000000135000000000PD                              j2405   AY 82403865938054805   207104    
D269912979346        00311000058941863473               000058941863473                       6700812494  969598100PAYCODE94685001000022367000000487000000000PD                              j2405   AY 82403865918639059   207104    
D253100862661        00312000053022745266               000053022745266                       6700815619  506942480PAYCODE72141001000042971000000344000000000PD                              j2405   AY 82403865935374505   207104    
D252704974181        00313000055752355046               000055752355046                       6700816741  860290137PAYCODE00932001000000867000000507000000000PD                              j2405   AY 82403865983776118   207104    
D263205591737        00314000059168334000               000059168334000                       6700813788  668505912PAYCODE92716001000007319000000500000000000PD                              j2405   AY 82403865921155225   207104    
D259309264846        00315000050714810507               000050714810507                       6700817470  295598134PAYCODE43186001000005959000000404000000000PD                              j2405   AY 82403865960635238   207104    
D265463357988        00316000057189416498               000057189416498                       6700810163  116903581PAYCODE55018001000037851000000385000000000PD                              j2405   AY 82403865920059624   207104    
D257221776118        00317000059728499359               000059728499359                       6700811229  974547645PAYCODE85259001000032372000000191000000000PD                              j2405   AY 82403865902038994   207104    
D269754206690        00318000058687969166               000058687969166                       6700819584  203084448PAYCODE04815001000041207000000332000000000PD                              j2405   AY 82403865991034635   207104    
D264939540711        00319000050218563038               000050218563038                       6700819331  381994802PAYCODE62603001000008688000000060000000000PD                              j2405   AY 82403865929011252   207104    
D254216464322        00320000055355477668               000055355477668                       6700811088  736277855PAYCODE24321001000011339000000114000000000PD                              j2405   AY 82403865921485242   207104    
D262072401585        00321000057433711788               000057433711788                       6700815599  490244054PAYCODE53337001000001562000000330000000000PD                              j2405   AY 82403865969350007   207104    
D267562242274        00322000054905838266               000054905838266                       6700810565  120540299PAYCODE67321001000003361000000337000000000PD                              j2405   AY 82403865933157553   207104    
D259485668548        00323000052822379908               000052822379908                       6700815423  396195621PAYCODE94995001000014078000000302000000000PD                              j2405   AY 82403865947618687   207104    
D257100845171        00324000057658889160               000057658889160                       6700811099  291213265PAYCODE83347001000048065000000219000000000PD                              j2405   AY 82403865955740344   207104    
D254450714803        00325000054013101129               000054013101129                       6700819000  842877801PAYCODE35387001000023453000000316000000000PD                              j2405   AY 82403865998235855   207104    
D261156938183        00326000052751638326               000052751638326                       6700813614  852654444PAYCODE94207001000025662000000351000000000PD                              j2405   AY 82403865942204825   207104    
D263845074989        00327000052164491908               000052164491908                       6700810343  687944985PAYCODE65154001000016423000000185000000000PD                              j2405   AY 82403865980884915   207104    
D267656919305        00328000055248291041               000055248291041                       6700819364  507088560PAYCODE88557001000009938000000022000000000PD                              j2405   AY 82403865950054279   207104    
D261486724882        00329000057238490489               000057238490489                       6700814239  855439532PAYCODE35633001000019961000000454000000000PD                              j2405   AY 82403865995651029   207104    
D260235637411        00330000058722233616               000058722233616                       6700815470  464313290PAYCODE62543001000011556000000343000000000PD                              j2405   AY 82403865995408362   207104    
D255102623572        00331000056083850001               000056083850001                       6700810656  962184964PAYCODE32523001000039603000000269000000000PD                              j2405   AY 82403865946670332   207104    
D257247335221        00332000053469943458               000053469943458                       6700812298  423524615PAYCODE03617001000011417000000457000000000PD                              j2405   AY 82403865910956658   207104    
D263102826173        00333000053871797613               000053871797613                       6700815037  041235214PAYCODE28681001000008070000000063000000000PD                              j2405   AY 82403865909201562   207104    
D267958589329        00334000059953310106               000059953310106                       6700815020  202532089PAYCODE08844001000035439000000186000000000PD                              j2405   AY 82403865977128333   207104    
D268907516826        00335000055369110856               000055369110856                       6700814910  665104064PAYCODE14931001000040022000000286000000000PD                              j2405   AY 82403865991052382   207104    
D258932771609        00336000059047223287               000059047223287                       6700816670  275122345PAYCODE43051001000005925000000261000000000PD                              j2405   AY 82403865932808503   207104    
D253126052761        00337000056287055359               000056287055359                       6700815757  096927787PAYCODE83849001000008855000000088000000000PD                              j2405   AY 82403865934691158   207104    
D255819606666        00338000056745660611               000056745660611                       6700816977  062551003PAYCODE26174001000040602000000194000000000PD                              j2405   AY 82403865910902486   207104    
D263902805269        00339000050862153879               000050862153879                       6700814448  402361015PAYCODE57844001000003846000000108000000000PD                              j2405   AY 82403865986361360   207104    
D253116915055        00340000050578949791               000050578949791                       6700818197  394284383PAYCODE72019001000028370000000360000000000PD                              j2405   AY 82403865907493926   207104    
D266450322326        00341000059582812988               000059582812988                       6700812583  836293754PAYCODE13089001000042076000000213000000000PD                              j2405   AY 82403865919919434   207104    
D263197013199        00342000051605120985               000051605120985                       6700819172  147088808PAYCODE34514001000011822000000466000000000PD                              j2405   AY 82403865906361541   207104    
D268276327434        00343000059431321947               000059431321947                       6700817032  902848230PAYCODE80186001000043732000000454000000000PD                              j2405   AY 82403865941746690   207104    
D254211707171        00344000053482549973               000053482549973                       6700817753  917991697PAYCODE26738001000018129000000115000000000PD                              j2405   AY 82403865977681071   207104    
D250477824092        00345000056742386356               000056742386356                       6700818408  271125891PAYCODE54938001000027516000000076000000000PD                              j2405   AY 82403865911745741   207104    
D263631598280        00346000057084930336               000057084930336                       6700818304  743808850PAYCODE31606001000026014000000309000000000PD                              j2405   AY 82403865920072182   207104    
D251118483046        00347000058592454036               000058592454036                       6700816408  709953823PAYCODE36408001000039365000000087000000000PD                              j2405   AY 82403865908405309   207104    
D269521903332        00348000057848958745               000057848958745                       6700815236  639394531PAYCODE39703001000005372000000090000000000PD                              j2405   AY 82403865902956677   207104    
D265302911911        00349000054949833907               000054949833907                       6700817134  062482502PAYCODE45278001000020573000000146000000000PD                              j2405   AY 82403865983215350   207104    
D264210484164        00350000050882604416               000050882604416                       6700810942  482456144PAYCODE70811001000024520000000487000000000PD                              j2405   AY 82403865920216907   207104    
D255295455466        00351000055801354877               000055801354877                       6700811553  087149685PAYCODE77348001000035114000000117000000000PD                              j2405   AY 82403865929948804   207104    
D268028436918        00352000052822997638               000052822997638                       6700815396  759849609PAYCODE74938001000047757000000282000000000PD                              j2405   AY 82403865900141997   207104    
D251153786707        00353000055300807915               000055300807915                       6700818273  493058226PAYCODE66614001000022607000000045000000000PD                              j2405   AY 82403865913000199   207104    
D256484477298        00354000050896440483               000050896440483                       6700819863  222190210PAYCODE12911001000020416000000083000000000PD                              j2405   AY 82403865957569354   207104    
D255043355556        00355000053005339397               000053005339397                       6700814209  365327674PAYCODE83209001000036261000000169000000000PD                              j2405   AY 82403865959979840   207104    
D264847297053        00356000056116856924               000056116856924                       6700819814  585880305PAYCODE61517001000016279000000057000000000PD                              j2405   AY 82403865910796676   207104    
D253349417993        00357000052836594072               000052836594072                       6700815943  982223080PAYCODE20293001000005121000000483000000000PD                              j2405   AY 82403865920175743   207104    
D250846063265        00358000052897575965               000052897575965                       6700815474  729948099PAYCODE03620001000043763000000350000000000PD                              j2405   AY 82403865917536175   207104    
D268623951649        00359000053238416287               000053238416287                       6700817476  562885506PAYCODE51064001000008109000000108000000000PD                              j2405   AY 82403865956934564   207104    
D258585842963        00360000050274659041               000050274659041                       6700811914  889390406PAYCODE55612001000016208000000103000000000PD                              j2405   AY 82403865952340455   207104    
D250688722062        00361000054329526555               000054329526555                       6700816662  446449425PAYCODE94793001000040061000000356000000000PD                              j2405   AY 82403865985866155   207104    
D262888380410        00362000054745401818               000054745401818                       6700818333  284854552PAYCODE61004001000038846000000502000000000PD                              j2405   AY 82403865944137427   207104    
D265830023064        00363000056510393061               000056510393061                       6700810801  959742862PAYCODE55677001000018468000000013000000000PD                              j2405   AY 82403865903430969   207104    
D253333438800        00364000059474743864               000059474743864                       6700816969  664968315PAYCODE56756001000009407000000181000000000PD                              j2405   AY 82403865957200917   207104    
D269903476335        00365000050951843941               000050951843941                       6700817676  654695403PAYCODE52623001000011420000000128000000000PD                              j2405   AY 82403865977007744   207104    
D264562523569        00366000053296914947               000053296914947                       6700812751  378371782PAYCODE59103001000022126000000482000000000PD                              j2405   AY 82403865908791090   207104    
D259372585965        00367000059140921764               000059140921764                       6700816076  708194614PAYCODE06248001000046664000000300000000000PD                              j2405   AY 82403865978446885   207104    
D262784201784        00368000056572868069               000056572868069                       6700817245  031247745PAYCODE28100001000043183000000035000000000PD                              j2405   AY 82403865912838869   207104    
D269890185925        00369000055950576056               000055950576056                       6700819328  767109687PAYCODE51429001000049452000000030000000000PD                              j2405   AY 82403865957145576   207104    
D255931443662        00370000050589846494               000050589846494                       6700815512  546173820PAYCODE68760001000025862000000205000000000PD                              j2405   AY 82403865985448756   207104    
D260632175488        00371000055584178465               000055584178465                       6700813284  157805996PAYCODE75932001000003701000000458000000000PD                              j2405   AY 82403865967417949   207104    
D254050420036        00372000053232221784               000053232221784                       6700814565  445355615PAYCODE80381001000036231000000168000000000PD                              j2405   AY 82403865951378993   207104    
D251433787454        00373000053185496038               000053185496038                       6700813662  814499469PAYCODE23301001000017887000000127000000000PD                              j2405   AY 82403865976209743   207104    
D258894606887        00374000054018939438               000054018939438                       6700814086  600121896PAYCODE59860001000031702000000073000000000PD                              j2405   AY 82403865990288145   207104    
D266391407847        00375000059520039466               000059520039466                       6700813524  717189216PAYCODE88444001000046260000000094000000000PD                              j2405   AY 82403865946910980   207104    
D261753844529        00376000050999454330               000050999454330                       6700813586  243478057PAYCODE93352001000022790000000199000000000PD                              j2405   AY 82403865970403905   207104    
D264370007369        00377000055291272302               000055291272302                       6700818497  866542775PAYCODE47318001000041200000000261000000000PD                              j2405   AY 82403865959265139   207104    
D265177013325        00378000057384393727               000057384393727                       6700811277  502527105PAYCODE80970001000026440000000078000000000PD                              j2405   AY 82403865960063681   207104    
D255907772534        00379000051391348306               000051391348306                       6700811663  068345413PAYCODE59624001000020472000000211000000000PD                              j2405   AY 82403865900736546   207104    
D251467116671        00380000053095934154               000053095934154                       6700819091  680293335PAYCODE86392001000024078000000180000000000PD                              j2405   AY 82403865952363450   207104    
D262746417260        00381000057725657242               000057725657242                       6700819685  834487034PAYCODE16344001000042485000000395000000000PD                              j2405   AY 82403865984559044   207104    
D269811209821        00382000052062194035               000052062194035                       6700817096  389253275PAYCODE05803001000036097000000059000000000PD                              j2405   AY 82403865940032633   207104    
D257954909268        00383000054010841309               000054010841309                       6700812381  498418908PAYCODE72517001000041001000000245000000000PD                              j2405   AY 82403865975321025   207104    
D259709943813        00384000051754786713               000051754786713                       6700817132  711850426PAYCODE45494001000036770000000438000000000PD                              j2405   AY 82403865983363139   207104    
D252892632955        00385000058926080730               000058926080730                       6700811758  853057448PAYCODE38610001000046803000000478000000000PD                              j2405   AY 82403865908986390   207104    
D250826312517        00386000057345980857               000057345980857                       6700816538  649971330PAYCODE14262001000006326000000253000000000PD                              j2405   AY 82403865961053335   207104    
D260116416693        00387000059624788797               000059624788797                       6700811405  092922007PAYCODE56441001000024943000000289000000000PD                              j2405   AY 82403865983351851   207104    
D252364870707        00388000057564519949               000057564519949                       6700818167  779873330PAYCODE67132001000034894000000336000000000PD                              j2405   AY 82403865960138408   207104    
D263551718499        00389000051123121831               000051123121831                       6700818812  683018215PAYCODE80305001000022680000000424000000000PD                              j2405   AY 82403865938154415   207104    
D254901030413        00390000059765086096               000059765086096                       6700811557  773232992PAYCODE96456001000005503000000422000000000PD                              j2405   AY 82403865918480851   207104    
D265806676900        00391000051044792681               000051044792681                       6700813425  486935585PAYCODE81086001000045247000000470000000000PD                              j2405   AY 82403865945413559   207104    
D253284113399        00392000057826341064               000057826341064                       6700817670  685104580PAYCODE15087001000033474000000252000000000PD                              j2405   AY 82403865987998584   207104    
D252586027214        00393000059285045647               000059285045647                       6700814736  365721127PAYCODE15342001000008126000000225000000000PD                              j2405   AY 82403865939400901   207104    
D258668277935        00394000059898348625               000059898348625                       6700818472  940135821PAYCODE12812001000018006000000062000000000PD                              j2405   AY 82403865982616260   207104    
D261986681047        00395000058420928366               000058420928366                       6700814720  969127576PAYCODE01760001000012037000000419000000000PD                              j2405   AY 82403865976093068   207104    
D261846104958        00396000057529113974               000057529113974                       6700811848  129568958PAYCODE63688001000014472000000011000000000PD                              j2405   AY 82403865970419739   207104    
D250573713372        00397000059005636473               000059005636473                       6700818102  670992299PAYCODE97614001000050380000000334000000000PD                              j2405   AY 82403865951610730   207104    
D255732758724        00398000058163555147               000058163555147                       6700817481  116435029PAYCODE87509001000048674000000030000000000PD                              j2405   AY 82403865917951485   207104    
D255182355412        00399000056311507603               000056311507603                       6700814867  270253847PAYCODE89476001000039405000000234000000000PD                              j2405   AY 82403865982750147   207104    
D257042305022        00400000050110919803               000050110919803                       6700812202  890219711PAYCODE80017001000002708000000255000000000PD                              j2405   AY 82403865986220008   207104    
D266832496248        00401000055882408981               000055882408981                       6700819211  278154960PAYCODE73392001000029530000000097000000000PD                              j2405   AY 82403865970595339   207104    
D251507170304        00402000059397479077               000059397479077                       6700819473  265569415PAYCODE58850001000033399000000477000000000PD                              j2405   AY 82403865984409250   207104    
D260244662330        00403000056308276493               000056308276493                       6700817571  891167251PAYCODE93586001000039689000000264000000000PD                              j2405   AY 82403865908665998   207104    
D256732777790        00404000059856236501               000059856236501                       6700819368  787821923PAYCODE89000001000022870000000018000000000PD                              j2405   AY 82403865994240730   207104    
D261402429490        00405000056928055311               000056928055311                       6700819053  969218402PAYCODE19488001000007331000000353000000000PD                              j2405   AY 82403865928340844   207104    
D260704943239        00406000053515615916               000053515615916                       6700816239  144346699PAYCODE54809001000043243000000469000000000PD                              j2405   AY 82403865995215427   207104    
D257957912797        00407000055849686518               000055849686518                       6700811444  117651424PAYCODE00291001000048847000000019000000000PD                              j2405   AY 82403865994311952   207104    
D254381225956        00408000058171630908               000058171630908                       6700817709  457078874PAYCODE60866001000012068000000293000000000PD                              j2405   AY 82403865915001005   207104    
D261340862467        00409000055638828000               000055638828000                       6700817364  923481911PAYCODE09733001000039589000000249000000000PD                              j2405   AY 82403865947806634   207104    
D250695054980        00410000051924151263               000051924151263                       6700819786  031208364PAYCODE82715001000026630000000127000000000PD                              j2405   AY 82403865949426742   207104    
D257565239450        00411000056362882517               000056362882517                       6700818647  483420752PAYCODE88202001000030129000000386000000000PD                              j2405   AY 82403865924861459   207104    
D258842601004        00412000050250729773               000050250729773                       6700818055  315206001PAYCODE93507001000006166000000065000000000PD                              j2405   AY 82403865933692435   207104    
D268664253446        00413000053335296497               000053335296497                       6700813402  522537788PAYCODE42619001000015306000000303000000000PD                              j2405   AY 82403865957464457   207104    
D266961705364        00414000057758546636               000057758546636                       6700813798  558241045PAYCODE01940001000036386000000267000000000PD                              j2405   AY 82403865955323281   207104    
D258051066264        00415000056251576750               000056251576750                       6700813677  030131009PAYCODE29601001000040654000000339000000000PD                              j2405   AY 82403865930514606   207104    
D267115463111        00416000057691935641               000057691935641                       6700813816  558883913PAYCODE60778001000006424000000452000000000PD                              j2405   AY 82403865935049720   207104    
D259491575311        00417000056704869641               000056704869641                       6700811305  879784563PAYCODE57941001000034746000000264000000000PD                              j2405   AY 82403865998484823   207104    
D266523804399        00418000057352433831               000057352433831                       6700812475  631373808PAYCODE13176001000003416000000496000000000PD                              j2405   AY 82403865954751162   207104    
D259280665472        00419000052311023676               000052311023676                       6700819289  208644884PAYCODE82461001000037821000000486000000000PD                              j2405   AY 82403865912050738   207104    
D260701029254        00420000057447059240               000057447059240                       6700816754  095335289PAYCODE08937001000031700000000422000000000PD                              j2405   AY 82403865984616782   207104    
D265158580810        00421000057222882140               000057222882140                       6700819847  527423592PAYCODE67212001000043029000000392000000000PD                              j2405   AY 82403865976375647   207104    
D253602987355        00422000055858610899               000055858610899                       6700813639  743816104PAYCODE55186001000018245000000478000000000PD                              j2405   AY 82403865910506463   207104    
D266401787705        00423000052246208065               000052246208065                       6700811965  249522538PAYCODE71040001000021871000000463000000000PD                              j2405   AY 82403865924058095   207104    
D263429246639        00424000053578729861               000053578729861                       6700816773  894242333PAYCODE95831001000046305000000389000000000PD                              j2405   AY 82403865985560139   207104    
D267678616041        00425000053567961415               000053567961415                       6700818578  029308140PAYCODE25996001000003357000000302000000000PD                              j2405   AY 82403865901206257   207104    
D262048853678        00426000052756040937               000052756040937                       6700813086  607093115PAYCODE75110001000016184000000441000000000PD                              j2405   AY 82403865942937646   207104    
D268833909008        00427000050089139801               000050089139801                       6700816494  911078539PAYCODE48980001000044136000000067000000000PD                              j2405   AY 82403865971373260   207104    
D255329982722        00428000052004807162               000052004807162                       6700817821  462883345PAYCODE81370001000043720000000369000000000PD                              j2405   AY 82403865956908244   207104    
D260598945982        00429000054002731557               000054002731557                       6700810035  782924151PAYCODE78302001000013893000000211000000000PD                              j2405   AY 82403865986998736   207104    
D251193614410        00430000057702130595               000057702130595                       6700810299  446858383PAYCODE55387001000043751000000023000000000PD                              j2405   AY 82403865978974902   207104    
D264769497176        00431000050391571615               000050391571615                       6700812040  029946309PAYCODE72022001000050334000000335000000000PD                              j2405   AY 82403865945710776   207104    
