HPRIME                    BCBSMN                   20260304BCBSMN_PRIME_CLAIMS_20260304143228.txt                                                                                                                           
D26A06399757         0000100000943630231086965          ABC23218                              4341241581      4341241581  389628611 REDI3130Reject to client - Duplicate claim/line                                         
D26A06399757         0000200000943630231086965          ABC23218                              4341241581      4341241581  389628611 A                                                                                       
D26A06314512         0000100000142192407973370          ABC46836                              2382301346      2382301346  444734315 A                                                                                       
D26A06380290         0000100000690394330299592          ABC47511                              6415910997      6415910997  812581104 A                                                                                       
D26A06380290         0000200000690394330299592          ABC47511                              6415910997      6415910997  812581104 A                                                                                       
D26A06380290         0000300000690394330299592          ABC47511                              6415910997      6415910997  812581104 A                                                                                       
D26A06362159         0000100000761460429142577          ABC12739                              5591414053      5591414053  137864504 A                                                                                       
D26A06362159         0000200000761460429142577          ABC12739                              5591414053      5591414053  137864504 A                                                                                       
D26A06393204         0000100000394840556082257          ABC63350                              4843487446      4843487446  502526801 A                                                                                       
D26A06341232         0000100000069472750238893          ABC27840                              3150048139      3150048139  366770749 A                                                                                       
D26A06341232         0000200000069472750238893          ABC27840                              3150048139      3150048139  366770749 A                                                                                       
D26A06341232         0000300000069472750238893          ABC27840                              3150048139      3150048139  366770749 A                                                                                       
D26A06376789         0000100000471199017920266          ABC32174                              3450767703      3450767703  998406420 A                                                                                       
D26A06376789         0000200000471199017920266          ABC32174                              3450767703      3450767703  998406420 A                                                                                       
D26A06388141         0000100000296895780630642          ABC63953                              3872854586      3872854586  364419117 A                                                                                       
D26A06343745         0000100000216352684102037          ABC00494                              0671885864      0671885864  397156538 A                                                                                       
D26A06343745         0000200000216352684102037          ABC00494                              0671885864      0671885864  397156538 A                                                                                       
D26A06343745         0000300000216352684102037          ABC00494                              0671885864      0671885864  397156538 A                                                                                       
D26A06344803         0000100000672369406096181          ABC60414                              9340875151      9340875151  596472783 A                                                                                       
D26A06344803         0000200000672369406096181          ABC60414                              9340875151      9340875151  596472783 A                                                                                       
D26A06390579         0000100000810002267527219          ABC17358                              6966101027      6966101027  951649716 A                                                                                       
D26A06303397         0000100000469847606109951          ABC08270                              7320940045      7320940045  172032767 A                                                                                       
D26A06303397         0000200000469847606109951          ABC08270                              7320940045      7320940045  172032767 A                                                                                       
D26A06303397         0000300000469847606109951          ABC08270                              7320940045      7320940045  172032767 A                                                                                       
D26A06359099         0000100000203527901719785          ABC80457                              8358698169      8358698169  362924109 A                                                                                       
D26A06359099         0000200000203527901719785          ABC80457                              8358698169      8358698169  362924109 A                                                                                       
D26A06356088         0000100000420801374558546          ABC21885                              6851863474      6851863474  104395655 A                                                                                       
D26A06305676         0000100000333771691038088          ABC86257                              0940235474      0940235474  126333398 A                                                                                       
D26A06305676         0000200000333771691038088          ABC86257                              0940235474      0940235474  126333398 A                                                                                       
D26A06305676         0000300000333771691038088          ABC86257                              0940235474      0940235474  126333398 A                                                                                       
D26A06378286         0000100000423201879624338          ABC30099                              5020859988      5020859988  863189021 A                                                                                       
D26A06378286         0000200000423201879624338          ABC30099                              5020859988      5020859988  863189021 A                                                                                       
D26A06328669         0000100000870219521858048          ABC11433                              2329291109      2329291109  836034324 A                                                                                       
D26A06343411         0000100000883279644423580          ABC55988                              8245227607      8245227607  845442438 A                                                                                       
D26A06343411         0000200000883279644423580          ABC55988                              8245227607      8245227607  845442438 A                                                                                       
D26A06343411         0000300000883279644423580          ABC55988                              8245227607      8245227607  845442438 A                                                                                       
D26A06351973         0000100000574461472087472          ABC58621                              9508865846      9508865846  479365808 A                                                                                       
D26A06351973         0000200000574461472087472          ABC58621                              9508865846      9508865846  479365808 A                                                                                       
D26A06384520         0000100000197551137084682          ABC33051                              9976827062      9976827062  057393623 A                                                                                       
D26A06393030         0000100000284915258420908          ABC60069                              1397549438      1397549438  956337517 A                                                                                       
D26A06393030         0000200000284915258420908          ABC60069                              1397549438      1397549438  956337517 A                                                                                       
D26A06393030         0000300000284915258420908          ABC60069                              1397549438      1397549438  956337517 A                                                                                       
D26A06308336         0000100000152678133775746          ABC65267                              1623923370      1623923370  415499199 A                                                                                       
D26A06308336         0000200000152678133775746          ABC65267                              1623923370      1623923370  415499199 A                                                                                       
D26A06306288         0000100000778407230267999          ABC33570                              5506687154      5506687154  188598040 A                                                                                       
D26A06394037         0000100000540327395139199          ABC64894                              8054233276      8054233276  708613104 A                                                                                       
D26A06394037         0000200000540327395139199          ABC64894                              8054233276      8054233276  708613104 A                                                                                       
D26A06394037         0000300000540327395139199          ABC64894                              8054233276      8054233276  708613104 A                                                                                       
D26A06300342         0000100000601425851924666          ABC61547                              2189208527      2189208527  282001468 A                                                                                       
D26A06300342         0000200000601425851924666          ABC61547                              2189208527      2189208527  282001468 A                                                                                       
D26A06355332         0000100000564857696953029          ABC36735                              0719703114      0719703114  918788688 A                                                                                       
D26A06349213         0000100000904857476755216          ABC59717                              7097295716      7097295716  667722332 A                                                                                       
D26A06349213         0000200000904857476755216          ABC59717                              7097295716      7097295716  667722332 A                                                                                       
D26A06349213         0000300000904857476755216          ABC59717                              7097295716      7097295716  667722332 A                                                                                       
D26A06324819         0000100000815996557603493          ABC47110                              8328330281      8328330281  190587724 A                                                                                       
D26A06324819         0000200000815996557603493          ABC47110                              8328330281      8328330281  190587724 A                                                                                       
D26A06307223         0000100000009276136908781          ABC32023                              3815380418      3815380418  181359904 A                                                                                       
D26A06323987         0000100000836181248965506          ABC25839                              5163610466      5163610466  784189515 A                                                                                       
D26A06323987         0000200000836181248965506          ABC25839                              5163610466      5163610466  784189515 A                                                                                       
D26A06323987         0000300000836181248965506          ABC25839                              5163610466      5163610466  784189515 A                                                                                       
D26A06352719         0000100000409058144086885          ABC54027                              2384070139      2384070139  668619778 A                                                                                       
D26A06352719         0000200000409058144086885          ABC54027                              2384070139      2384070139  668619778 A                                                                                       
D26A06355745         0000100000739074711380525          ABC11509                              2385017708      2385017708  207443880 A                                                                                       
D26A06360965         0000100000072061482456476          ABC65539                              2941963494      2941963494  375073401 A                                                                                       
D26A06360965         0000200000072061482456476          ABC65539                              2941963494      2941963494  375073401 A                                                                                       
D26A06360965         0000300000072061482456476          ABC65539                              2941963494      2941963494  375073401 A                                                                                       
D26A06360457         0000100000914646425810174          ABC71548                              5829974152      5829974152  367899954 A                                                                                       
D26A06360457         0000200000914646425810174          ABC71548                              5829974152      5829974152  367899954 A                                                                                       
D26A06333664         0000100000384218287590251          ABC06875                              1287371448      1287371448  056711793 A                                                                                       
D26A06368121         0000100000762767266895033          ABC94312                              2722778420      2722778420  532088322 A                                                                                       
D26A06368121         0000200000762767266895033          ABC94312                              2722778420      2722778420  532088322 A                                                                                       
D26A06368121         0000300000762767266895033          ABC94312                              2722778420      2722778420  532088322 A                                                                                       
D26A06338030         0000100000142051959310029          ABC08693                              4315416165      4315416165  417590831 A                                                                                       
D26A06338030         0000200000142051959310029          ABC08693                              4315416165      4315416165  417590831 A                                                                                       
D26A06330284         0000100000172714512374433          ABC73261                              3075436053      3075436053  111549709 A                                                                                       
D26A06314941         0000100000634339194187440          ABC39084                              7810867772      7810867772  384659052 A                                                                                       
D26A06314941         0000200000634339194187440          ABC39084                              7810867772      7810867772  384659052 A                                                                                       
D26A06314941         0000300000634339194187440          ABC39084                              7810867772      7810867772  384659052 A                                                                                       
D26A06306591         0000100000903159472483476          ABC90985                              0524907143      0524907143  441756701 A                                                                                       
D26A06306591         0000200000903159472483476          ABC90985                              0524907143      0524907143  441756701 A                                                                                       
D26A06387305         0000100000199650375321196          ABC57243                              4362365094      4362365094  270619701 A                                                                                       
D26A06360466         0000100000927211087243944          ABC07721                              8776307878      8776307878  771899584 A                                                                                       
D26A06360466         0000200000927211087243944          ABC07721                              8776307878      8776307878  771899584 A                                                                                       
D26A06360466         0000300000927211087243944          ABC07721                              8776307878      8776307878  771899584 A                                                                                       
D26A06399608         0000100000304581990190406          ABC70883                              0268892793      0268892793  557196943 A                                                                                       
D26A06399608         0000200000304581990190406          ABC70883                              0268892793      0268892793  557196943 A                                                                                       
D26A06378909         0000100000692570983486642          ABC22422                              7028677632      7028677632  799438184 A                                                                                       
D26A06319320         0000100000000850545087456          ABC72724                              9734971808      9734971808  661870326 A                                                                                       
D26A06319320         0000200000000850545087456          ABC72724                              9734971808      9734971808  661870326 A                                                                                       
D26A06319320         0000300000000850545087456          ABC72724                              9734971808      9734971808  661870326 A                                                                                       
D26A06339457         0000100000836623688735051          ABC72302                              3755028942      3755028942  912768333 A                                                                                       
D26A06339457         0000200000836623688735051          ABC72302                              3755028942      3755028942  912768333 A                                                                                       
D26A06387074         0000100000777644655598284          ABC15508                              1748596817      1748596817  798891942 A                                                                                       
D26A06352393         0000100000263603513068240          ABC25639                              1552770033      1552770033  070182288 A                                                                                       
D26A06352393         0000200000263603513068240          ABC25639                              1552770033      1552770033  070182288 A                                                                                       
D26A06352393         0000300000263603513068240          ABC25639                              1552770033      1552770033  070182288 A                                                                                       
D26A06326187         0000100000354720932547264          ABC81347                              8727049187      8727049187  922056721 A                                                                                       
D26A06326187         0000200000354720932547264          ABC81347                              8727049187      8727049187  922056721 A                                                                                       
D26A06353438         0000100000145243097190006          ABC07425                              3094878656      3094878656  474826307 A                                                                                       
D26A06399052         0000100000567370287023302          ABC45255                              8609977916      8609977916  989648179 A                                                                                       
D26A06399052         0000200000567370287023302          ABC45255                              8609977916      8609977916  989648179 A                                                                                       
D26A06399052         0000300000567370287023302          ABC45255                              8609977916      8609977916  989648179 A                                                                                       
D26A06358656         0000100000893753210087186          ABC07066                              0339397325      0339397325  367901999 A                                                                                       
D26A06358656         0000200000893753210087186          ABC07066                              0339397325      0339397325  367901999 A                                                                                       
D26A06343531         0000100000580316959553832          ABC30149                              4771202329      4771202329  111847050 A                                                                                       
D26A06341625         0000100000946715926952542          ABC71906                              1044694385      1044694385  093561316 A                                                                                       
D26A06341625         0000200000946715926952542          ABC71906                              1044694385      1044694385  093561316 A                                                                                       
D26A06341625         0000300000946715926952542          ABC71906                              1044694385      1044694385  093561316 A                                                                                       
D26A06302800         0000100000304055885817448          ABC90690                              0575362795      0575362795  138595698 A                                                                                       
D26A06302800         0000200000304055885817448          ABC90690                              0575362795      0575362795  138595698 A                                                                                       
D26A06367108         0000100000230006686091188          ABC69605                              0280277205      0280277205  173548828 A                                                                                       
D26A06318581         0000100000536011871903797          ABC74864                              1248509406      1248509406  761277957 A                                                                                       
D26A06318581         0000200000536011871903797          ABC74864                              1248509406      1248509406  761277957 A                                                                                       
D26A06318581         0000300000536011871903797          ABC74864                              1248509406      1248509406  761277957 A                                                                                       
D26A06316080         0000100000825004836857520          ABC00991                              6759472132      6759472132  938037246 A                                                                                       
D26A06316080         0000200000825004836857520          ABC00991                              6759472132      6759472132  938037246 A                                                                                       
D26A06359847         0000100000276801750403111          ABC40392                              8558555345      8558555345  947042763 A                                                                                       
D26A06342433         0000100000080522372543239          ABC88808                              9119327268      9119327268  623732638 A                                                                                       
D26A06342433         0000200000080522372543239          ABC88808                              9119327268      9119327268  623732638 A                                                                                       
D26A06342433         0000300000080522372543239          ABC88808                              9119327268      9119327268  623732638 A                                                                                       
D26A06342036         0000100000625763041996475          ABC99271                              0773166780      0773166780  004129043 A                                                                                       
D26A06342036         0000200000625763041996475          ABC99271                              0773166780      0773166780  004129043 A                                                                                       
D26A06308501         0000100000521907739852925          ABC92917                              4297350599      4297350599  173907419 A                                                                                       
D26A06365304         0000100000791944511243646          ABC06813                              5768439597      5768439597  830626229 A                                                                                       
D26A06365304         0000200000791944511243646          ABC06813                              5768439597      5768439597  830626229 A                                                                                       
D26A06365304         0000300000791944511243646          ABC06813                              5768439597      5768439597  830626229 A                                                                                       
D26A06388620         0000100000783052776817350          ABC84687                              2324452424      2324452424  410316455 A                                                                                       
D26A06388620         0000200000783052776817350          ABC84687                              2324452424      2324452424  410316455 A                                                                                       
D26A06379029         0000100000531517731352308          ABC85302                              4915182719      4915182719  821595406 A                                                                                       
D26A06351040         0000100000205372156914122          ABC38728                              9301218685      9301218685  645754699 A                                                                                       
D26A06351040         0000200000205372156914122          ABC38728                              9301218685      9301218685  645754699 A                                                                                       
D26A06351040         0000300000205372156914122          ABC38728                              9301218685      9301218685  645754699 A                                                                                       
D26A06359508         0000100000403329370671882          ABC12961                              0998474209      0998474209  113861342 A                                                                                       
D26A06359508         0000200000403329370671882          ABC12961                              0998474209      0998474209  113861342 A                                                                                       
D26A06308344         0000100000285959818869981          ABC61179                              6660218950      6660218950  595303599 A                                                                                       
D26A06349947         0000100000995749224185175          ABC48404                              9926504524      9926504524  119936154 A                                                                                       
D26A06349947         0000200000995749224185175          ABC48404                              9926504524      9926504524  119936154 A                                                                                       
D26A06349947         0000300000995749224185175          ABC48404                              9926504524      9926504524  119936154 A                                                                                       
D26A06398632         0000100000403934895706491          ABC68176                              0197001425      0197001425  332559228 A                                                                                       
D26A06398632         0000200000403934895706491          ABC68176                              0197001425      0197001425  332559228 A                                                                                       
D26A06366336         0000100000673109907717575          ABC07857                              1191165687      1191165687  062177895 A                                                                                       
D26A06344927         0000100000253516898566469          ABC69180                              9925738043      9925738043  076803830 A                                                                                       
D26A06344927         0000200000253516898566469          ABC69180                              9925738043      9925738043  076803830 A                                                                                       
D26A06344927         0000300000253516898566469          ABC69180                              9925738043      9925738043  076803830 A                                                                                       
D26A06353931         0000100000741637977271568          ABC51890                              9840817241      9840817241  202081708 A                                                                                       
D26A06353931         0000200000741637977271568          ABC51890                              9840817241      9840817241  202081708 A                                                                                       
D26A06393407         0000100000660479062377642          ABC54966                              2063581090      2063581090  904350071 A                                                                                       
D26A06334398         0000100000244649120623586          ABC44765                              2177133503      2177133503  850672220 A                                                                                       
D26A06334398         0000200000244649120623586          ABC44765                              2177133503      2177133503  850672220 A                                                                                       
D26A06334398         0000300000244649120623586          ABC44765                              2177133503      2177133503  850672220 A                                                                                       
D26A06345707         0000100000989651276666003          ABC40965                              0298788045      0298788045  764318925 A                                                                                       
D26A06345707         0000200000989651276666003          ABC40965                              0298788045      0298788045  764318925 A                                                                                       
D26A06372640         0000100000616036762182437          ABC00411                              4211164748      4211164748  682597199 A                                                                                       
D26A06327743         0000100000875235114347814          ABC78891                              5877197753      5877197753  533314614 A                                                                                       
D26A06327743         0000200000875235114347814          ABC78891                              5877197753      5877197753  533314614 A                                                                                       
D26A06327743         0000300000875235114347814          ABC78891                              5877197753      5877197753  533314614 A                                                                                       
D26A06366693         0000100000432459091533542          ABC48719                              7627685385      7627685385  347874752 A                                                                                       
D26A06366693         0000200000432459091533542          ABC48719                              7627685385      7627685385  347874752 A                                                                                       
D26A06336882         0000100000199925295108565          ABC64460                              4294098000      4294098000  683112977 A                                                                                       
D26A06327002         0000100000251518537341501          ABC76043                              7867199448      7867199448  650502487 A                                                                                       
D26A06327002         0000200000251518537341501          ABC76043                              7867199448      7867199448  650502487 A                                                                                       
D26A06327002         0000300000251518537341501          ABC76043                              7867199448      7867199448  650502487 A                                                                                       
D26A06393644         0000100000560885111982275          ABC25376                              1020183673      1020183673  992337902 A                                                                                       
D26A06393644         0000200000560885111982275          ABC25376                              1020183673      1020183673  992337902 A                                                                                       
D26A06339844         0000100000475255021032300          ABC52103                              0819067921      0819067921  603735787 A                                                                                       
D26A06348588         0000100000883042682410033          ABC73169                              0714896065      0714896065  479997353 A                                                                                       
D26A06348588         0000200000883042682410033          ABC73169                              0714896065      0714896065  479997353 A                                                                                       
D26A06348588         0000300000883042682410033          ABC73169                              0714896065      0714896065  479997353 A                                                                                       
D26A06335338         0000100000521444628899596          ABC18605                              5852515639      5852515639  383193297 A                                                                                       
D26A06335338         0000200000521444628899596          ABC18605                              5852515639      5852515639  383193297 A                                                                                       
D26A06365361         0000100000664090702616072          ABC82165                              6263260207      6263260207  716274846 A                                                                                       
D26A06370823         0000100000190728934935576          ABC41436                              4878494421      4878494421  624972034 A                                                                                       
D26A06370823         0000200000190728934935576          ABC41436                              4878494421      4878494421  624972034 A                                                                                       
D26A06370823         0000300000190728934935576          ABC41436                              4878494421      4878494421  624972034 A                                                                                       
D26A06369940         0000100000585934463404562          ABC01679                              8370596877      8370596877  387361742 A                                                                                       
D26A06369940         0000200000585934463404562          ABC01679                              8370596877      8370596877  387361742 A                                                                                       
D26A06395207         0000100000701588137568349          ABC85706                              2075595772      2075595772  966998172 A                                                                                       
D26A06360482         0000100000315610953382832          ABC70245                              3106082733      3106082733  142470661 A                                                                                       
D26A06360482         0000200000315610953382832          ABC70245                              3106082733      3106082733  142470661 A                                                                                       
D26A06360482         0000300000315610953382832          ABC70245                              3106082733      3106082733  142470661 A                                                                                       
D26A06376213         0000100000323653439054781          ABC83816                              3457950173      3457950173  278997215 A                                                                                       
D26A06376213         0000200000323653439054781          ABC83816                              3457950173      3457950173  278997215 A                                                                                       
D26A06339692         0000100000457081851278670          ABC49908                              5519748318      5519748318  141055318 A                                                                                       
D26A06314167         0000100000059454434056737          ABC73590                              0887373264      0887373264  801202588 A                                                                                       
D26A06314167         0000200000059454434056737          ABC73590                              0887373264      0887373264  801202588 A                                                                                       
D26A06314167         0000300000059454434056737          ABC73590                              0887373264      0887373264  801202588 A                                                                                       
D26A06399694         0000100000336967809025805          ABC61322                              0022821138      0022821138  195771953 A                                                                                       
D26A06399694         0000200000336967809025805          ABC61322                              0022821138      0022821138  195771953 A                                                                                       
D26A06345787         0000100000374615207861071          ABC35126                              3855951312      3855951312  181251804 A                                                                                       
D26A06374858         0000100000561529040576734          ABC42408                              2733025349      2733025349  225797250 A                                                                                       
D26A06374858         0000200000561529040576734          ABC42408                              2733025349      2733025349  225797250 A                                                                                       
D26A06374858         0000300000561529040576734          ABC42408                              2733025349      2733025349  225797250 A                                                                                       
D26A06393237         0000100000810564450003014          ABC59464                              7137182885      7137182885  991240217 A                                                                                       
D26A06393237         0000200000810564450003014          ABC59464                              7137182885      7137182885  991240217 A                                                                                       
D26A06306265         0000100000533655215808870          ABC73599                              6678152732      6678152732  469331917 A                                                                                       
D26A06342211         0000100000715951832365752          ABC62309                              0257522606      0257522606  224756372 A                                                                                       
D26A06342211         0000200000715951832365752          ABC62309                              0257522606      0257522606  224756372 A                                                                                       
D26A06342211         0000300000715951832365752          ABC62309                              0257522606      0257522606  224756372 A                                                                                       
D26A06300384         0000100000918991895493296          ABC66749                              5911503845      5911503845  806674973 A                                                                                       
D26A06300384         0000200000918991895493296          ABC66749                              5911503845      5911503845  806674973 A                                                                                       
D26A06384029         0000100000783529669050501          ABC49875                              7605724275      7605724275  298735313 A                                                                                       
D26A06382721         0000100000125643502745047          ABC63881                              1740090357      1740090357  415377602 A                                                                                       
D26A06382721         0000200000125643502745047          ABC63881                              1740090357      1740090357  415377602 A                                                                                       
D26A06382721         0000300000125643502745047          ABC63881                              1740090357      1740090357  415377602 A                                                                                       
D26A06321456         0000100000628631571137538          ABC49390                              6883983840      6883983840  476069848 A                                                                                       
D26A06321456         0000200000628631571137538          ABC49390                              6883983840      6883983840  476069848 A                                                                                       
D26A06338424         0000100000383037743017862          ABC16363                              7023379709      7023379709  756168630 A                                                                                       
D26A06356876         0000100000149396632925907          ABC65813                              8110845040      8110845040  125262726 A                                                                                       
D26A06356876         0000200000149396632925907          ABC65813                              8110845040      8110845040  125262726 A                                                                                       
D26A06356876         0000300000149396632925907          ABC65813                              8110845040      8110845040  125262726 A                                                                                       
D26A06383951         0000100000652784459416296          ABC91840                              5857455385      5857455385  412149811 A                                                                                       
D26A06383951         0000200000652784459416296          ABC91840                              5857455385      5857455385  412149811 A                                                                                       
D26A06347919         0000100000766875323738394          ABC54120                              6678282130      6678282130  264802466 A                                                                                       
D26A06318297         0000100000790058985432563          ABC77079                              4099824940      4099824940  777778612 A                                                                                       
D26A06318297         0000200000790058985432563          ABC77079                              4099824940      4099824940  777778612 A                                                                                       
D26A06318297         0000300000790058985432563          ABC77079                              4099824940      4099824940  777778612 A                                                                                       
D26A06375139         0000100000087352855418477          ABC55157                              4073572095      4073572095  928080805 A                                                                                       
D26A06375139         0000200000087352855418477          ABC55157                              4073572095      4073572095  928080805 A                                                                                       
D26A06323804         0000100000655487219068549          ABC18547                              8676651462      8676651462  911566647 A                                                                                       
D26A06326833         0000100000020027303000430          ABC41733                              1745779621      1745779621  852118421 A                                                                                       
D26A06326833         0000200000020027303000430          ABC41733                              1745779621      1745779621  852118421 A                                                                                       
D26A06326833         0000300000020027303000430          ABC41733                              1745779621      1745779621  852118421 A                                                                                       
D26A06315434         0000100000658547687242090          ABC12583                              0570236039      0570236039  969917421 A                                                                                       
D26A06315434         0000200000658547687242090          ABC12583                              0570236039      0570236039  969917421 A                                                                                       
D26A06386138         0000100000015898599811819          ABC02898                              7386781378      7386781378  369221080 A                                                                                       
D26A06348484         0000100000560831836437566          ABC85390                              7735086171      7735086171  050384150 A                                                                                       
D26A06348484         0000200000560831836437566          ABC85390                              7735086171      7735086171  050384150 A                                                                                       
D26A06348484         0000300000560831836437566          ABC85390                              7735086171      7735086171  050384150 A                                                                                       
D26A06325122         0000100000912703729296755          ABC89396                              5498222920      5498222920  109436461 A                                                                                       
D26A06325122         0000200000912703729296755          ABC89396                              5498222920      5498222920  109436461 A                                                                                       
D26A06389243         0000100000484791794517552          ABC16933                              0613579305      0613579305  808925981 A                                                                                       
D26A06332677         0000100000649240206633380          ABC88170                              8445200011      8445200011  260834435 A                                                                                       
D26A06332677         0000200000649240206633380          ABC88170                              8445200011      8445200011  260834435 A                                                                                       
D26A06332677         0000300000649240206633380          ABC88170                              8445200011      8445200011  260834435 A                                                                                       
D26A06316114         0000100000757278661763385          ABC39532                              9810628717      9810628717  453347339 A                                                                                       
D26A06316114         0000200000757278661763385          ABC39532                              9810628717      9810628717  453347339 A                                                                                       
D26A06335843         0000100000472155771816294          ABC29561                              6416464074      6416464074  717181731 A                                                                                       
D26A06332589         0000100000649433744276795          ABC66471                              4451358867      4451358867  568632853 A                                                                                       
D26A06332589         0000200000649433744276795          ABC66471                              4451358867      4451358867  568632853 A                                                                                       
D26A06332589         0000300000649433744276795          ABC66471                              4451358867      4451358867  568632853 A                                                                                       
D26A06319745         0000100000651067494148240          ABC08105                              4223492117      4223492117  689628693 A                                                                                       
D26A06319745         0000200000651067494148240          ABC08105                              4223492117      4223492117  689628693 A                                                                                       
D26A06370236         0000100000090972559570946          ABC55137                              8800758143      8800758143  793198465 A                                                                                       
D26A06324840         0000100000034138311040708          ABC93186                              1747629450      1747629450  935076557 A                                                                                       
D26A06324840         0000200000034138311040708          ABC93186                              1747629450      1747629450  935076557 A                                                                                       
D26A06324840         0000300000034138311040708          ABC93186                              1747629450      1747629450  935076557 A                                                                                       
D26A06319628         0000100000271877655185711          ABC18217                              7312864428      7312864428  551958324 A                                                                                       
D26A06319628         0000200000271877655185711          ABC18217                              7312864428      7312864428  551958324 A                                                                                       
D26A06312027         0000100000292281451267801          ABC29151                              4548233228      4548233228  149211524 A                                                                                       
D26A06361994         0000100000454611660743310          ABC26032                              7280672919      7280672919  058843711 A                                                                                       
D26A06361994         0000200000454611660743310          ABC26032                              7280672919      7280672919  058843711 A                                                                                       
D26A06361994         0000300000454611660743310          ABC26032                              7280672919      7280672919  058843711 A                                                                                       
D26A06380082         0000100000893959832857426          ABC74276                              6068818280      6068818280  200203743 A                                                                                       
D26A06380082         0000200000893959832857426          ABC74276                              6068818280      6068818280  200203743 A                                                                                       
D26A06339085         0000100000993337598870737          ABC03969                              7591409894      7591409894  804512134 A                                                                                       
D26A06388463         0000100000466834828722626          ABC26864                              3793577347      3793577347  636495771 A                                                                                       
D26A06388463         0000200000466834828722626          ABC26864                              3793577347      3793577347  636495771 A                                                                                       
D26A06388463         0000300000466834828722626          ABC26864                              3793577347      3793577347  636495771 A                                                                                       
D26A06382604         0000100000585541282492001          ABC52038                              7634724510      7634724510  283920889 A                                                                                       
D26A06382604         0000200000585541282492001          ABC52038                              7634724510      7634724510  283920889 A                                                                                       
D26A06352937         0000100000495248764781430          ABC78258                              3302025743      3302025743  885544133 A                                                                                       
D26A06373928         0000100000138290431176864          ABC46796                              3252366774      3252366774  454486075 A                                                                                       
D26A06373928         0000200000138290431176864          ABC46796                              3252366774      3252366774  454486075 A                                                                                       
D26A06373928         0000300000138290431176864          ABC46796                              3252366774      3252366774  454486075 A                                                                                       
D26A06364959         0000100000145776160699464          ABC76460                              0906649868      0906649868  974860000 A                                                                                       
D26A06364959         0000200000145776160699464          ABC76460                              0906649868      0906649868  974860000 A                                                                                       
D26A06381216         0000100000700100498214948          ABC07503                              6427346037      6427346037  328701170 A                                                                                       
D26A06343688         0000100000424266196276161          ABC63423                              3841374599      3841374599  905540479 A                                                                                       
D26A06343688         0000200000424266196276161          ABC63423                              3841374599      3841374599  905540479 A                                                                                       
D26A06343688         0000300000424266196276161          ABC63423                              3841374599      3841374599  905540479 A                                                                                       
D26A06383150         0000100000389964991617950          ABC39845                              5428860817      5428860817  806960035 A                                                                                       
D26A06383150         0000200000389964991617950          ABC39845                              5428860817      5428860817  806960035 A                                                                                       
D26A06309730         0000100000207280297623767          ABC16847                              2756057742      2756057742  786444478 A                                                                                       
D26A06312177         0000100000456958607518161          ABC03262                              5612697614      5612697614  540131567 A                                                                                       
D26A06312177         0000200000456958607518161          ABC03262                              5612697614      5612697614  540131567 A                                                                                       
D26A06312177         0000300000456958607518161          ABC03262                              5612697614      5612697614  540131567 A                                                                                       
D26A06382036         0000100000012097927126023          ABC12862                              9695128083      9695128083  917984483 A                                                                                       
D26A06382036         0000200000012097927126023          ABC12862                              9695128083      9695128083  917984483 A                                                                                       
D26A06327080         0000100000522522249685138          ABC05745                              0405125000      0405125000  564637611 A                                                                                       
D26A06329039         0000100000488245217220316          ABC03893                              3505862090      3505862090  646416223 A                                                                                       
D26A06329039         0000200000488245217220316          ABC03893                              3505862090      3505862090  646416223 A                                                                                       
D26A06329039         0000300000488245217220316          ABC03893                              3505862090      3505862090  646416223 A                                                                                       
D26A06360843         0000100000194700462935020          ABC67213                              8753026176      8753026176  789623280 A                                                                                       
D26A06360843         0000200000194700462935020          ABC67213                              8753026176      8753026176  789623280 A                                                                                       
D26A06343888         0000100000610504631832840          ABC16341                              4223520003      4223520003  977932538 A                                                                                       
D26A06363302         0000100000210751349921279          ABC28589                              3448247011      3448247011  682480409 A                                                                                       
D26A06363302         0000200000210751349921279          ABC28589                              3448247011      3448247011  682480409 A                                                                                       
D26A06363302         0000300000210751349921279          ABC28589                              3448247011      3448247011  682480409 A                                                                                       
D26A06333147         0000100000273672297752329          ABC19882                              2160725349      2160725349  529373115 A                                                                                       
D26A06333147         0000200000273672297752329          ABC19882                              2160725349      2160725349  529373115 A                                                                                       
D26A06373945         0000100000256524799384358          ABC14359                              9645593080      9645593080  960371331 A                                                                                       
D26A06352578         0000100000476364153765985          ABC54253                              3951879012      3951879012  079691379 A                                                                                       
D26A06352578         0000200000476364153765985          ABC54253                              3951879012      3951879012  079691379 A                                                                                       
D26A06352578         0000300000476364153765985          ABC54253                              3951879012      3951879012  079691379 A                                                                                       
D26A06307056         0000100000421746360500345          ABC98481                              0613346693      0613346693  537902896 A                                                                                       
D26A06307056         0000200000421746360500345          ABC98481                              0613346693      0613346693  537902896 A                                                                                       
D26A06379984         0000100000360574291203894          ABC40481                              2386804734      2386804734  742894774 A                                                                                       
D26A06306156         0000100000642316198496796          ABC64586                              7435356626      7435356626  698175596 A                                                                                       
D26A06306156         0000200000642316198496796          ABC64586                              7435356626      7435356626  698175596 A                                                                                       
D26A06306156         0000300000642316198496796          ABC64586                              7435356626      7435356626  698175596 A                                                                                       
D26A06372596         0000100000667250590275044          ABC93979                              8526814638      8526814638  372504661 A                                                                                       
D26A06372596         0000200000667250590275044          ABC93979                              8526814638      8526814638  372504661 A                                                                                       
D26A06390165         0000100000140813658516924          ABC08784                              2362767210      2362767210  518794194 A                                                                                       
D26A06377191         0000100000779332584101460          ABC89656                              7859747021      7859747021  589814825 A                                                                                       
D26A06377191         0000200000779332584101460          ABC89656                              7859747021      7859747021  589814825 A                                                                                       
D26A06377191         0000300000779332584101460          ABC89656                              7859747021      7859747021  589814825 A                                                                                       
D26A06392893         0000100000193793748308941          ABC53354                              6087143101      6087143101  620670618 A                                                                                       
D26A06392893         0000200000193793748308941          ABC53354                              6087143101      6087143101  620670618 A                                                                                       
D26A06335866         0000100000945241415318916          ABC77847                              6213100858      6213100858  169103612 A                                                                                       
D26A06329068         0000100000080465862336353          ABC90409                              1916863162      1916863162  120844936 A                                                                                       
D26A06329068         0000200000080465862336353          ABC90409                              1916863162      1916863162  120844936 A                                                                                       
D26A06329068         0000300000080465862336353          ABC90409                              1916863162      1916863162  120844936 A                                                                                       
D26A06356599         0000100000653677081984150          ABC18135                              3652781720      3652781720  751475862 A                                                                                       
D26A06356599         0000200000653677081984150          ABC18135                              3652781720      3652781720  751475862 A                                                                                       
D26A06329385         0000100000942020479442331          ABC54854                              1853948327      1853948327  474000234 A                                                                                       
D26A06311116         0000100000042753290435289          ABC46306                              9160377382      9160377382  562582267 A                                                                                       
D26A06311116         0000200000042753290435289          ABC46306                              9160377382      9160377382  562582267 A                                                                                       
D26A06311116         0000300000042753290435289          ABC46306                              9160377382      9160377382  562582267 A                                                                                       
D26A06305286         0000100000924493274257818          ABC22437                              5261686695      5261686695  698664376 A                                                                                       
D26A06305286         0000200000924493274257818          ABC22437                              5261686695      5261686695  698664376 A                                                                                       
D26A06391869         0000100000964946935866069          ABC45213                              5872227670      5872227670  380030303 A                                                                                       
D26A06386519         0000100000344282494906932          ABC61499                              2084569705      2084569705  141805459 A                                                                                       
D26A06386519         0000200000344282494906932          ABC61499                              2084569705      2084569705  141805459 A                                                                                       
D26A06386519         0000300000344282494906932          ABC61499                              2084569705      2084569705  141805459 A                                                                                       
D26A06347518         0000100000431093561930176          ABC34352                              6662658224      6662658224  278199667 A                                                                                       
D26A06347518         0000200000431093561930176          ABC34352                              6662658224      6662658224  278199667 A                                                                                       
D26A06335367         0000100000950593993111258          ABC17768                              4082008798      4082008798  609683706 A                                                                                       
D26A06366951         0000100000297909227746430          ABC98515                              3703705449      3703705449  965844444 A                                                                                       
D26A06366951         0000200000297909227746430          ABC98515                              3703705449      3703705449  965844444 A                                                                                       
D26A06366951         0000300000297909227746430          ABC98515                              3703705449      3703705449  965844444 A                                                                                       
D26A06306709         0000100000572564203248627          ABC99748                              5042711441      5042711441  932203362 A                                                                                       
D26A06306709         0000200000572564203248627          ABC99748                              5042711441      5042711441  932203362 A                                                                                       
D26A06343948         0000100000662496458846684          ABC37501                              3986792044      3986792044  581359096 A                                                                                       
D26A06317041         0000100000369685742959022          ABC87928                              2101958149      2101958149  552963640 A                                                                                       
D26A06317041         0000200000369685742959022          ABC87928                              2101958149      2101958149  552963640 A                                                                                       
D26A06317041         0000300000369685742959022          ABC87928                              2101958149      2101958149  552963640 A                                                                                       
D26A06355318         0000100000807835497311544          ABC56466                              3056660352      3056660352  453122709 A                                                                                       
D26A06355318         0000200000807835497311544          ABC56466                              3056660352      3056660352  453122709 A                                                                                       
D26A06303764         0000100000957859232874736          ABC38840                              5068174551      5068174551  738856128 A                                                                                       
D26A06320356         0000100000336365685371122          ABC70270                              9233744678      9233744678  610482866 A                                                                                       
D26A06320356         0000200000336365685371122          ABC70270                              9233744678      9233744678  610482866 A                                                                                       
D26A06320356         0000300000336365685371122          ABC70270                              9233744678      9233744678  610482866 A                                                                                       
D26A06375241         0000100000576482660498392          ABC55317                              5951774568      5951774568  836714235 A                                                                                       
D26A06375241         0000200000576482660498392          ABC55317                              5951774568      5951774568  836714235 A                                                                                       
D26A06387550         0000100000910919889451819          ABC01555                              5436659528      5436659528  406757727 A                                                                                       
D26A06351025         0000100000659042527331569          ABC87551                              5709880165      5709880165  039859119 A                                                                                       
D26A06351025         0000200000659042527331569          ABC87551                              5709880165      5709880165  039859119 A                                                                                       
D26A06351025         0000300000659042527331569          ABC87551                              5709880165      5709880165  039859119 A                                                                                       
D26A06313734         0000100000811912718646406          ABC77490                              8290974061      8290974061  154550325 A                                                                                       
D26A06313734         0000200000811912718646406          ABC77490                              8290974061      8290974061  154550325 A                                                                                       
D26A06347215         0000100000803212464060715          ABC07769                              3787859517      3787859517  835991437 A                                                                                       
D26A06311867         0000100000820861780190055          ABC44804                              7903161858      7903161858  020513259 A                                                                                       
D26A06311867         0000200000820861780190055          ABC44804                              7903161858      7903161858  020513259 A                                                                                       
D26A06311867         0000300000820861780190055          ABC44804                              7903161858      7903161858  020513259 A                                                                                       
D26A06366352         0000100000696602440571088          ABC05469                              2861601032      2861601032  741370499 A                                                                                       
D26A06366352         0000200000696602440571088          ABC05469                              2861601032      2861601032  741370499 A                                                                                       
D26A06376607         0000100000624626918848165          ABC87003                              2455103397      2455103397  585904869 A                                                                                       
D26A06377845         0000100000834679385725969          ABC33665                              1603495234      1603495234  923585933 A                                                                                       
D26A06377845         0000200000834679385725969          ABC33665                              1603495234      1603495234  923585933 A                                                                                       
D26A06377845         0000300000834679385725969          ABC33665                              1603495234      1603495234  923585933 A                                                                                       
D26A06331147         0000100000905281601275282          ABC52766                              7120801187      7120801187  916617030 A                                                                                       
D26A06331147         0000200000905281601275282          ABC52766                              7120801187      7120801187  916617030 A                                                                                       
D26A06386173         0000100000647875750335309          ABC21970                              2745807524      2745807524  541585619 A                                                                                       
D26A06395928         0000100000235831775962535          ABC79176                              5008287514      5008287514  007792914 A                                                                                       
D26A06395928         0000200000235831775962535          ABC79176                              5008287514      5008287514  007792914 A                                                                                       
D26A06395928         0000300000235831775962535          ABC79176                              5008287514      5008287514  007792914 A                                                                                       
D26A06315969         0000100000578123726479675          ABC41464                              7627971559      7627971559  955586658 A                                                                                       
D26A06315969         0000200000578123726479675          ABC41464                              7627971559      7627971559  955586658 A                                                                                       
D26A06311217         0000100000700997407021877          ABC63474                              7945619689      7945619689  726507968 A                                                                                       
D26A06360901         0000100000837241416522754          ABC52414                              2521609650      2521609650  029211770 A                                                                                       
D26A06360901         0000200000837241416522754          ABC52414                              2521609650      2521609650  029211770 A                                                                                       
D26A06360901         0000300000837241416522754          ABC52414                              2521609650      2521609650  029211770 A                                                                                       
D26A06372541         0000100000487380953732647          ABC31697                              1752386435      1752386435  481481716 A                                                                                       
D26A06372541         0000200000487380953732647          ABC31697                              1752386435      1752386435  481481716 A                                                                                       
D26A06397642         0000100000460885886234113          ABC27754                              1009533036      1009533036  667990315 A                                                                                       
D26A06328811         0000100000365466326093655          ABC82524                              1619659602      1619659602  653063931 A                                                                                       
D26A06328811         0000200000365466326093655          ABC82524                              1619659602      1619659602  653063931 A                                                                                       
D26A06328811         0000300000365466326093655          ABC82524                              1619659602      1619659602  653063931 A                                                                                       
D26A06396853         0000100000165292273533397          ABC98791                              3755726164      3755726164  516994013 A                                                                                       
D26A06396853         0000200000165292273533397          ABC98791                              3755726164      3755726164  516994013 A                                                                                       
D26A06316996         0000100000401934591711827          ABC22098                              0690809786      0690809786  330642279 A                                                                                       
D26A06316824         0000100000295225556344285          ABC57356                              0607424789      0607424789  237984506 A                                                                                       
D26A06316824         0000200000295225556344285          ABC57356                              0607424789      0607424789  237984506 A                                                                                       
D26A06316824         0000300000295225556344285          ABC57356                              0607424789      0607424789  237984506 A                                                                                       
D26A06360616         0000100000616155476026418          ABC22221                              5237830778      5237830778  287602318 A                                                                                       
D26A06360616         0000200000616155476026418          ABC22221                              5237830778      5237830778  287602318 A                                                                                       
D26A06371626         0000100000662586660992896          ABC06379                              3861434444      3861434444  947741555 A                                                                                       
D26A06394204         0000100000875706330691034          ABC70643                              4956639631      4956639631  109394633 A                                                                                       
D26A06394204         0000200000875706330691034          ABC70643                              4956639631      4956639631  109394633 A                                                                                       
D26A06394204         0000300000875706330691034          ABC70643                              4956639631      4956639631  109394633 A                                                                                       
D26A06352433         0000100000015425485490463          ABC21943                              4681724513      4681724513  077809942 A                                                                                       
D26A06352433         0000200000015425485490463          ABC21943                              4681724513      4681724513  077809942 A                                                                                       
D26A06359987         0000100000083020858122707          ABC73524                              5696675691      5696675691  768610253 A                                                                                       
D26A06397746         0000100000485682579503382          ABC86414                              9069650728      9069650728  592621141 A                                                                                       
D26A06397746         0000200000485682579503382          ABC86414                              9069650728      9069650728  592621141 A                                                                                       
D26A06397746         0000300000485682579503382          ABC86414                              9069650728      9069650728  592621141 A                                                                                       
D26A06322529         0000100000259945765278095          ABC04336                              4227558950      4227558950  090866596 A                                                                                       
D26A06322529         0000200000259945765278095          ABC04336                              4227558950      4227558950  090866596 A                                                                                       
D26A06359414         0000100000026328166439861          ABC65335                              8012490439      8012490439  036379563 A                                                                                       
D26A06341350         0000100000610182974543432          ABC48360                              1319768179      1319768179  383493812 A                                                                                       
D26A06341350         0000200000610182974543432          ABC48360                              1319768179      1319768179  383493812 A                                                                                       
D26A06341350         0000300000610182974543432          ABC48360                              1319768179      1319768179  383493812 A                                                                                       
D26A06336501         0000100000071492659379987          ABC03217                              2116733492      2116733492  078112143 A                                                                                       
D26A06336501         0000200000071492659379987          ABC03217                              2116733492      2116733492  078112143 A                                                                                       
D26A06347292         0000100000691613158227371          ABC66655                              7961673309      7961673309  760804142 A                                                                                       
D26A06330995         0000100000574078808819969          ABC82947                              2566994425      2566994425  512414325 A                                                                                       
D26A06330995         0000200000574078808819969          ABC82947                              2566994425      2566994425  512414325 A                                                                                       
D26A06330995         0000300000574078808819969          ABC82947                              2566994425      2566994425  512414325 A                                                                                       
D26A06393799         0000100000517691869486115          ABC10345                              7648697114      7648697114  018246492 A                                                                                       
D26A06393799         0000200000517691869486115          ABC10345                              7648697114      7648697114  018246492 A                                                                                       
D26A06343152         0000100000083185741912565          ABC58162                              2870107071      2870107071  824036582 A                                                                                       
D26A06360592         0000100000074877342679881          ABC45090                              6208830779      6208830779  637915883 A                                                                                       
D26A06360592         0000200000074877342679881          ABC45090                              6208830779      6208830779  637915883 A                                                                                       
D26A06360592         0000300000074877342679881          ABC45090                              6208830779      6208830779  637915883 A                                                                                       
D26A06362435         0000100000540231310635735          ABC88718                              8483716835      8483716835  709534138 A                                                                                       
D26A06362435         0000200000540231310635735          ABC88718                              8483716835      8483716835  709534138 A                                                                                       
D26A06342096         0000100000090146347216700          ABC16995                              8233856850      8233856850  615515106 A                                                                                       
D26A06328247         0000100000578454392688429          ABC09815                              4271420424      4271420424  247170071 A                                                                                       
D26A06328247         0000200000578454392688429          ABC09815                              4271420424      4271420424  247170071 A                                                                                       
D26A06328247         0000300000578454392688429          ABC09815                              4271420424      4271420424  247170071 A                                                                                       
D26A06305231         0000100000995692156618180          ABC64126                              7814696828      7814696828  869359458 A                                                                                       
D26A06305231         0000200000995692156618180          ABC64126                              7814696828      7814696828  869359458 A                                                                                       
D26A06363184         0000100000985580179572970          ABC71288                              9426834778      9426834778  234190702 A                                                                                       
D26A06319829         0000100000712882488820813          ABC79205                              1972741029      1972741029  514972617 A                                                                                       
D26A06319829         0000200000712882488820813          ABC79205                              1972741029      1972741029  514972617 A                                                                                       
D26A06319829         0000300000712882488820813          ABC79205                              1972741029      1972741029  514972617 A                                                                                       
D26A06335539         0000100000565703315798456          ABC55843                              6082628529      6082628529  232635535 A                                                                                       
D26A06335539         0000200000565703315798456          ABC55843                              6082628529      6082628529  232635535 A                                                                                       
D26A06360421         0000100000949302123841227          ABC17313                              4149000826      4149000826  916962943 A                                                                                       
D26A06365209         0000100000041689611282915          ABC88120                              3014877465      3014877465  830878908 A                                                                                       
D26A06365209         0000200000041689611282915          ABC88120                              3014877465      3014877465  830878908 A                                                                                       
D26A06365209         0000300000041689611282915          ABC88120                              3014877465      3014877465  830878908 A                                                                                       
D26A06348835         0000100000870909663565696          ABC10360                              0884731248      0884731248  748836307 A                                                                                       
D26A06348835         0000200000870909663565696          ABC10360                              0884731248      0884731248  748836307 A                                                                                       
D26A06363572         0000100000041345845190772          ABC46083                              4260733138      4260733138  823032958 A                                                                                       
D26A06339332         0000100000276913741880949          ABC56347                              7567914017      7567914017  694247305 A                                                                                       
D26A06339332         0000200000276913741880949          ABC56347                              7567914017      7567914017  694247305 A                                                                                       
D26A06339332         0000300000276913741880949          ABC56347                              7567914017      7567914017  694247305 A                                                                                       
D26A06308386         0000100000547863114854665          ABC65116                              3402821712      3402821712  395301913 A                                                                                       
D26A06308386         0000200000547863114854665          ABC65116                              3402821712      3402821712  395301913 A                                                                                       
D26A06391260         0000100000033532293560197          ABC01958                              2486835432      2486835432  677563494 A                                                                                       
D26A06399100         0000100000304477481948835          ABC20498                              8689802772      8689802772  222385700 A                                                                                       
D26A06399100         0000200000304477481948835          ABC20498                              8689802772      8689802772  222385700 A                                                                                       
D26A06399100         0000300000304477481948835          ABC20498                              8689802772      8689802772  222385700 A                                                                                       
D26A06352743         0000100000773493710955084          ABC70937                              9011959094      9011959094  116168542 A                                                                                       
D26A06352743         0000200000773493710955084          ABC70937                              9011959094      9011959094  116168542 A                                                                                       
D26A06349516         0000100000411484118639955          ABC61722                              4319841574      4319841574  108584920 A                                                                                       
D26A06357775         0000100000478218846468320          ABC77982                              1625148450      1625148450  761289192 A                                                                                       
D26A06357775         0000200000478218846468320          ABC77982                              1625148450      1625148450  761289192 A                                                                                       
D26A06357775         0000300000478218846468320          ABC77982                              1625148450      1625148450  761289192 A                                                                                       
D26A06308962         0000100000464694602924824          ABC27965                              3744280858      3744280858  668810895 A                                                                                       
